{
  "contractName": "OntologyStorage",
  "abi": [
    {
      "anonymous": false,
      "inputs": [
        {
          "indexed": false,
          "name": "_cid",
          "type": "bytes"
        }
      ],
      "name": "AnnotationStored",
      "type": "event"
    },
    {
      "anonymous": false,
      "inputs": [
        {
          "indexed": false,
          "name": "_cid",
          "type": "bytes"
        }
      ],
      "name": "ClassStored",
      "type": "event"
    },
    {
      "anonymous": false,
      "inputs": [
        {
          "indexed": false,
          "name": "_cid",
          "type": "bytes"
        }
      ],
      "name": "IndividualStored",
      "type": "event"
    },
    {
      "constant": false,
      "inputs": [
        {
          "name": "property",
          "type": "bytes"
        },
        {
          "name": "value",
          "type": "string"
        }
      ],
      "name": "storeAnnotation",
      "outputs": [
        {
          "name": "",
          "type": "bytes"
        }
      ],
      "payable": false,
      "stateMutability": "nonpayable",
      "type": "function"
    },
    {
      "constant": true,
      "inputs": [
        {
          "name": "annCid",
          "type": "bytes"
        }
      ],
      "name": "retrieveAnnotation",
      "outputs": [
        {
          "name": "",
          "type": "bytes"
        },
        {
          "name": "",
          "type": "string"
        }
      ],
      "payable": false,
      "stateMutability": "view",
      "type": "function"
    },
    {
      "constant": true,
      "inputs": [
        {
          "name": "annCid",
          "type": "bytes"
        }
      ],
      "name": "isStoredAnnotation",
      "outputs": [
        {
          "name": "exists",
          "type": "bool"
        }
      ],
      "payable": false,
      "stateMutability": "view",
      "type": "function"
    },
    {
      "constant": true,
      "inputs": [
        {
          "name": "property",
          "type": "bytes"
        },
        {
          "name": "value",
          "type": "string"
        }
      ],
      "name": "calculateHashAnnotation",
      "outputs": [
        {
          "name": "",
          "type": "bytes32"
        }
      ],
      "payable": false,
      "stateMutability": "view",
      "type": "function"
    },
    {
      "constant": true,
      "inputs": [
        {
          "name": "property",
          "type": "bytes"
        },
        {
          "name": "value",
          "type": "string"
        }
      ],
      "name": "calculateCidAnnotation",
      "outputs": [
        {
          "name": "",
          "type": "bytes"
        }
      ],
      "payable": false,
      "stateMutability": "view",
      "type": "function"
    },
    {
      "constant": false,
      "inputs": [
        {
          "name": "_annotations",
          "type": "bytes"
        },
        {
          "name": "sub_class_of_class",
          "type": "bytes"
        }
      ],
      "name": "storeClass",
      "outputs": [
        {
          "name": "",
          "type": "bytes"
        }
      ],
      "payable": false,
      "stateMutability": "nonpayable",
      "type": "function"
    },
    {
      "constant": true,
      "inputs": [
        {
          "name": "classCid",
          "type": "bytes"
        }
      ],
      "name": "retrieveClass",
      "outputs": [
        {
          "name": "",
          "type": "bytes[]"
        },
        {
          "name": "",
          "type": "bytes[]"
        }
      ],
      "payable": false,
      "stateMutability": "view",
      "type": "function"
    },
    {
      "constant": true,
      "inputs": [
        {
          "name": "classCid",
          "type": "bytes"
        }
      ],
      "name": "isStoredClass",
      "outputs": [
        {
          "name": "exists",
          "type": "bool"
        }
      ],
      "payable": false,
      "stateMutability": "view",
      "type": "function"
    },
    {
      "constant": true,
      "inputs": [
        {
          "name": "_annotations",
          "type": "bytes"
        },
        {
          "name": "sub_class_of_class",
          "type": "bytes"
        }
      ],
      "name": "calculateHashClass",
      "outputs": [
        {
          "name": "",
          "type": "bytes32"
        }
      ],
      "payable": false,
      "stateMutability": "view",
      "type": "function"
    },
    {
      "constant": false,
      "inputs": [
        {
          "name": "_annotations",
          "type": "bytes"
        },
        {
          "name": "sub_class_of_class",
          "type": "bytes"
        }
      ],
      "name": "calculateCidClass",
      "outputs": [
        {
          "name": "",
          "type": "bytes"
        }
      ],
      "payable": false,
      "stateMutability": "nonpayable",
      "type": "function"
    },
    {
      "constant": false,
      "inputs": [
        {
          "name": "_annotations",
          "type": "bytes"
        },
        {
          "name": "_class_assertions",
          "type": "bytes"
        },
        {
          "name": "_negative_class_assertions",
          "type": "bytes"
        }
      ],
      "name": "storeIndividual",
      "outputs": [
        {
          "name": "",
          "type": "bytes"
        }
      ],
      "payable": false,
      "stateMutability": "nonpayable",
      "type": "function"
    },
    {
      "constant": true,
      "inputs": [
        {
          "name": "indCid",
          "type": "bytes"
        }
      ],
      "name": "retrieveIndividual",
      "outputs": [
        {
          "name": "",
          "type": "bytes[]"
        },
        {
          "name": "",
          "type": "bytes[]"
        },
        {
          "name": "",
          "type": "bytes[]"
        }
      ],
      "payable": false,
      "stateMutability": "view",
      "type": "function"
    },
    {
      "constant": true,
      "inputs": [
        {
          "name": "indCid",
          "type": "bytes"
        }
      ],
      "name": "isStoredIndividual",
      "outputs": [
        {
          "name": "exists",
          "type": "bool"
        }
      ],
      "payable": false,
      "stateMutability": "view",
      "type": "function"
    },
    {
      "constant": true,
      "inputs": [
        {
          "name": "_annotations",
          "type": "bytes"
        },
        {
          "name": "_class_assertions",
          "type": "bytes"
        },
        {
          "name": "_negative_class_assertions",
          "type": "bytes"
        }
      ],
      "name": "calculateHashIndividual",
      "outputs": [
        {
          "name": "",
          "type": "bytes32"
        }
      ],
      "payable": false,
      "stateMutability": "view",
      "type": "function"
    },
    {
      "constant": true,
      "inputs": [
        {
          "name": "_annotations",
          "type": "bytes"
        },
        {
          "name": "_class_assertions",
          "type": "bytes"
        },
        {
          "name": "_negative_class_assertions",
          "type": "bytes"
        }
      ],
      "name": "calculateCidIndividual",
      "outputs": [
        {
          "name": "",
          "type": "bytes"
        }
      ],
      "payable": false,
      "stateMutability": "view",
      "type": "function"
    },
    {
      "constant": true,
      "inputs": [
        {
          "name": "proposition",
          "type": "bytes"
        }
      ],
      "name": "isPropositionStored",
      "outputs": [
        {
          "name": "stored",
          "type": "bool"
        }
      ],
      "payable": false,
      "stateMutability": "view",
      "type": "function"
    }
  ],
  "bytecode": "0x6060604052341561000f57600080fd5b6127d28061001e6000396000f3006060604052600436106100e55763ffffffff7c010000000000000000000000000000000000000000000000000000000060003504166303a87acd81146100ea5780630ad562761461011e5780631d6089021461014957806361474f4c146101745780636836e409146101925780637acee2a7146101be5780639a25c2bd146101dc5780639bda72b4146101fa578063a149aab714610218578063a1fac61b14610236578063b1998b3614610254578063c596ea4314610272578063cc460d9d14610290578063dd281b87146102bd578063df2072e1146102db578063e102756314610307575b600080fd5b34156100f557600080fd5b61010861010336600461242d565b610325565b6040516101159190612671565b60405180910390f35b341561012957600080fd5b61013c6101373660046124cb565b610336565b604051610115919061268d565b341561015457600080fd5b6101676101623660046124cb565b61037b565b604051610115919061267f565b341561017f57600080fd5b61013c61018d366004612462565b6103a4565b341561019d57600080fd5b6101b06101ab36600461242d565b6103e2565b604051610115929190612613565b34156101c957600080fd5b61013c6101d73660046124cb565b6105e8565b34156101e757600080fd5b61013c6101f5366004612462565b6106e1565b341561020557600080fd5b61013c610213366004612462565b610715565b341561022357600080fd5b61013c610231366004612462565b6107e5565b341561024157600080fd5b61016761024f366004612462565b6108aa565b341561025f57600080fd5b61010861026d36600461242d565b6108db565b341561027d57600080fd5b61016761028b366004612462565b610a73565b341561029b57600080fd5b6102ae6102a936600461242d565b610a92565b60405161011593929190612638565b34156102c857600080fd5b6101086102d636600461242d565b610d8a565b34156102e657600080fd5b6102f96102f436600461242d565b610fba565b6040516101159291906126a5565b341561031257600080fd5b61010861032036600461242d565b61113f565b60006103308261113f565b92915050565b61033e612230565b610346612242565b6000610353868686611421565b915061035e82611711565b905061037161036b61178d565b826117b4565b9695505050505050565b6000610385612242565b610390858585611421565b905061039b81611711565b95945050505050565b6103ac612230565b6103b4612275565b6000604080519081016040528581526020810185905291506103d5826118fe565b905061039b61036b611913565b6103ea612230565b6103f2612230565b6000806103fe85611937565b6000818152600160208181526040928390208054949650945084939184019284929182810201905190810160405281815291906000602084015b828210156104f557838290600052602060002090018054600181600116156101000203166002900480601f0160208091040260200160405190810160405280929190818152602001828054600181600116156101000203166002900480156104e15780601f106104b6576101008083540402835291602001916104e1565b820191906000526020600020905b8154815290600101906020018083116104c457829003601f168201915b505050505081526020019060010190610438565b5050505091508080548060200260200160405190810160405281815291906000602084015b828210156105d757838290600052602060002090018054600181600116156101000203166002900480601f0160208091040260200160405190810160405280929190818152602001828054600181600116156101000203166002900480156105c35780601f10610598576101008083540402835291602001916105c3565b820191906000526020600020905b8154815290600101906020018083116105a657829003601f168201915b50505050508152602001906001019061051a565b505050509050935093505050915091565b6105f0612230565b6105f8612242565b6000610602612230565b61060d878787611421565b925061061883611946565b151561062357600080fd5b61062c83611711565b60008181526002602052604090209092508390815181908051610653929160200190612288565b5060208201518160010190805161066e929160200190612288565b50604082015181600201908051610689929160200190612288565b5090505061069e61069861178d565b836117b4565b90507ff25d86aad79bced60861989cf8f5a10d2b7a7617c8cc447dce06f272ba4e2f91816040516106cf919061268d565b60405180910390a19695505050505050565b6106e9612230565b6106f1612275565b60006106fd8585611a62565b915061070882611c5c565b905061039b61036b611c71565b61071d612230565b610725612275565b600061072f612230565b6040805190810160405286815260208101869052925061074e836118fe565b600081815260208190526040902090925083908151819080516107759291602001906122e0565b506020820151816001019080516107909291602001906122e0565b5090505061079f610698611913565b90507f44a8949760b97b5e094c74680b19803ad5edb630e69da8994980e83df02fb866816040516107d0919061268d565b60405180910390a18093505b50505092915050565b6107ed612230565b6107f5612275565b60006107ff612230565b6108098686611a62565b925061081483611c95565b151561081f57600080fd5b61082883611c5c565b6000818152600160205260409020909250839081518190805161084f929160200190612288565b5060208201518160010190805161086a929160200190612288565b50905050610879610698611c71565b90507fe21aebbe4e67c03e11dbbba2f290635a5803078ad4136617705d485ee37cdbba816040516107d0919061268d565b60006108b4612275565b604080519081016040528481526020810184905290506108d3816118fe565b949350505050565b6000806108e6612275565b6000806108f286611937565b6000818152602081905260409081902091955080519081016040529081600082018054600181600116156101000203166002900480601f0160208091040260200160405190810160405280929190818152602001828054600181600116156101000203166002900480156109a75780601f1061097c576101008083540402835291602001916109a7565b820191906000526020600020905b81548152906001019060200180831161098a57829003601f168201915b50505050508152602001600182018054600181600116156101000203166002900480601f016020809104026020016040519081016040528092919081815260200182805460018160011615610100020316600290048015610a495780601f10610a1e57610100808354040283529160200191610a49565b820191906000526020600020905b815481529060010190602001808311610a2c57829003601f168201915b5050505050815250509250610a618360000151611937565b81811415955091505b50505050919050565b6000610a7d612275565b610a878484611a62565b90506108d381611c5c565b610a9a612230565b610aa2612230565b610aaa612230565b600080610ab686611937565b600081815260026020818152604092839020805494965094508493600185019392850192859282810201905190810160405281815291906000602084015b82821015610bb157838290600052602060002090018054600181600116156101000203166002900480601f016020809104026020016040519081016040528092919081815260200182805460018160011615610100020316600290048015610b9d5780601f10610b7257610100808354040283529160200191610b9d565b820191906000526020600020905b815481529060010190602001808311610b8057829003601f168201915b505050505081526020019060010190610af4565b5050505092508180548060200260200160405190810160405281815291906000602084015b82821015610c9357838290600052602060002090018054600181600116156101000203166002900480601f016020809104026020016040519081016040528092919081815260200182805460018160011615610100020316600290048015610c7f5780601f10610c5457610100808354040283529160200191610c7f565b820191906000526020600020905b815481529060010190602001808311610c6257829003601f168201915b505050505081526020019060010190610bd6565b5050505091508080548060200260200160405190810160405281815291906000602084015b82821015610d7557838290600052602060002090018054600181600116156101000203166002900480601f016020809104026020016040519081016040528092919081815260200182805460018160011615610100020316600290048015610d615780601f10610d3657610100808354040283529160200191610d61565b820191906000526020600020905b815481529060010190602001808311610d4457829003601f168201915b505050505081526020019060010190610cb8565b50505050905094509450945050509193909250565b600080610d95612275565b610d9e84611937565b60008181526001602052604090819020919350805190810160405290816000820180548060200260200160405190810160405281815291906000602084015b82821015610e9a57838290600052602060002090018054600181600116156101000203166002900480601f016020809104026020016040519081016040528092919081815260200182805460018160011615610100020316600290048015610e865780601f10610e5b57610100808354040283529160200191610e86565b820191906000526020600020905b815481529060010190602001808311610e6957829003601f168201915b505050505081526020019060010190610ddd565b5050505081526020016001820180548060200260200160405190810160405281815291906000602084015b82821015610f8257838290600052602060002090018054600181600116156101000203166002900480601f016020809104026020016040519081016040528092919081815260200182805460018160011615610100020316600290048015610f6e5780601f10610f4357610100808354040283529160200191610f6e565b820191906000526020600020905b815481529060010190602001808311610f5157829003601f168201915b505050505081526020019060010190610ec5565b5050509152509091508190505151158015610fa05750806020015151155b15610fae5760009250610fb3565b600192505b5050919050565b610fc2612230565b610fca612230565b600080610fd685611937565b9150600080836000191660001916815260200190815260200160002090508060000181600101818054600181600116156101000203166002900480601f0160208091040260200160405190810160405280929190818152602001828054600181600116156101000203166002900480156110915780601f1061106657610100808354040283529160200191611091565b820191906000526020600020905b81548152906001019060200180831161107457829003601f168201915b50505050509150808054600181600116156101000203166002900480601f01602080910402602001604051908101604052809291908181526020018280546001816001161561010002031660029004801561112d5780601f106111025761010080835404028352916020019161112d565b820191906000526020600020905b81548152906001019060200180831161111057829003601f168201915b50505050509050935093505050915091565b60008061114a612242565b61115384611937565b600081815260026020526040908190209193506060905190810160405290816000820180548060200260200160405190810160405281815291906000602084015b8282101561125157838290600052602060002090018054600181600116156101000203166002900480601f01602080910402602001604051908101604052809291908181526020018280546001816001161561010002031660029004801561123d5780601f106112125761010080835404028352916020019161123d565b820191906000526020600020905b81548152906001019060200180831161122057829003601f168201915b505050505081526020019060010190611194565b5050505081526020016001820180548060200260200160405190810160405281815291906000602084015b8282101561133957838290600052602060002090018054600181600116156101000203166002900480601f0160208091040260200160405190810160405280929190818152602001828054600181600116156101000203166002900480156113255780601f106112fa57610100808354040283529160200191611325565b820191906000526020600020905b81548152906001019060200180831161130857829003601f168201915b50505050508152602001906001019061127c565b5050505081526020016002820180548060200260200160405190810160405281815291906000602084015b82821015610f8257838290600052602060002090018054600181600116156101000203166002900480601f01602080910402602001604051908101604052809291908181526020018280546001816001161561010002031660029004801561140d5780601f106113e25761010080835404028352916020019161140d565b820191906000526020600020905b8154815290600101906020018083116113f057829003601f168201915b505050505081526020019060010190611364565b611429612242565b611431612230565b611439612230565b611441612230565b611449612242565b60006040518059106114585750595b90808252806020026020018201604052801561148e57816020015b61147b612230565b8152602001906001900390816114735790505b509350611499611913565b600080516020612779833981519152166114b289611d52565b6000805160206127798339815191521614156115295760016040518059106114d75750595b90808252806020026020018201604052801561150d57816020015b6114fa612230565b8152602001906001900390816114f25790505b509350878460008151811061151e57fe5b602090810290910101525b60006040518059106115385750595b90808252806020026020018201604052801561156e57816020015b61155b612230565b8152602001906001900390816115535790505b509250611579611c71565b6000805160206127798339815191521661159288611d52565b6000805160206127798339815191521614156116095760016040518059106115b75750595b9080825280602002602001820160405280156115ed57816020015b6115da612230565b8152602001906001900390816115d25790505b50925086836000815181106115fe57fe5b602090810290910101525b60006040518059106116185750595b90808252806020026020018201604052801561164e57816020015b61163b612230565b8152602001906001900390816116335790505b509150611659611c71565b6000805160206127798339815191521661167287611d52565b6000805160206127798339815191521614156116e95760016040518059106116975750595b9080825280602002602001820160405280156116cd57816020015b6116ba612230565b8152602001906001900390816116b25790505b50915085826000815181106116de57fe5b602090810290910101525b6060604051908101604090815294815260208101939093525091810191909152949350505050565b600061171b612230565b600061172684611d61565b9150816040518082805190602001908083835b602083106117585780518252601f199092019160209182019101611739565b6001836020036101000a0380198251168184511617909252505050919091019250604091505051908190039020949350505050565b7f01f2011b20000000000000000000000000000000000000000000000000000000805b5090565b6117bc612230565b6117c4612230565b60008060256040518059106117d65750595b818152601f19601f830116810160200160405290509250600091505b60058210156118715785826005811061180757fe5b1a7f01000000000000000000000000000000000000000000000000000000000000000283838151811061183657fe5b9060200101907effffffffffffffffffffffffffffffffffffffffffffffffffffffffffffff1916908160001a9053506001909101906117f2565b5060005b60208110156118f45784816020811061188a57fe5b1a7f0100000000000000000000000000000000000000000000000000000000000000028382600501815181106118bc57fe5b9060200101907effffffffffffffffffffffffffffffffffffffffffffffffffffffffffffff1916908160001a905350600101611875565b5090949350505050565b6000611908612230565b600061172684611db5565b7f01f0011b2000000000000000000000000000000000000000000000000000000090565b60008060258301519392505050565b600080611951612230565b600061195b612230565b6000611965612230565b600095505b8751518610156119b0578751868151811061198157fe5b906020019060200201519450611996856108db565b15156119a55760009650611a57565b60019095019461196a565b600093505b876020015151841015611a0157876020015184815181106119d257fe5b9060200190602002015192506119e783610d8a565b15156119f65760009650611a57565b6001909301926119b5565b600091505b876040015151821015611a525787604001518281518110611a2357fe5b906020019060200201519050611a3881610d8a565b1515611a475760009650611a57565b600190910190611a06565b600196505b505050505050919050565b611a6a612275565b611a72612230565b611a7a612230565b611a82612275565b6000604051805910611a915750595b908082528060200260200182016040528015611ac757816020015b611ab4612230565b815260200190600190039081611aac5790505b509250611ad2611913565b60008051602061277983398151915216611aeb87611d52565b600080516020612779833981519152161415611b62576001604051805910611b105750595b908082528060200260200182016040528015611b4657816020015b611b33612230565b815260200190600190039081611b2b5790505b5092508583600081518110611b5757fe5b602090810290910101525b6000604051805910611b715750595b908082528060200260200182016040528015611ba757816020015b611b94612230565b815260200190600190039081611b8c5790505b509150611bb2611c71565b60008051602061277983398151915216611bcb86611d52565b600080516020612779833981519152161415611c42576001604051805910611bf05750595b908082528060200260200182016040528015611c2657816020015b611c13612230565b815260200190600190039081611c0b5790505b5091508482600081518110611c3757fe5b602090810290910101525b604080519081016040529283525060208201529392505050565b6000611c66612230565b600061172684611e00565b7f01f1011b2000000000000000000000000000000000000000000000000000000090565b600080611ca0612230565b6000611caa612230565b600093505b855151841015611cf55785518481518110611cc657fe5b906020019060200201519250611cdb836108db565b1515611cea5760009450610a6a565b600190930192611caf565b600091505b856020015151821015611d465785602001518281518110611d1757fe5b906020019060200201519050611d2c81610d8a565b1515611d3b5760009450610a6a565b600190910190611cfa565b50600195945050505050565b60008060208301519392505050565b611d69612230565b611d71612230565b6000611d7c84611e4b565b604051805910611d895750595b818152601f19601f830116810160200160405290509150611dac84602084611ef0565b82525092915050565b611dbd612230565b611dc5612230565b6000611dd084611fcc565b604051805910611ddd5750595b818152601f19601f830116810160200160405290509150611dac84602084611ffe565b611e08612230565b611e10612230565b6000611e1b84612050565b604051805910611e285750595b818152601f19601f830116810160200160405290509150611dac846020846120ad565b600080805b835151811015611e8757611e7a84518281518110611e6a57fe5b906020019060200201515161212b565b6001920182019101611e50565b5060005b836020015151811015611eb857611eab84602001518281518110611e6a57fe5b6001920182019101611e8b565b5060005b836040015151811015611ee957611edc84604001518281518110611e6a57fe5b6001920182019101611ebc565b5092915050565b600082815b855151811015611f3e57611f0d60016002878761213e565b90940193611f3286518281518110611f2157fe5b906020019060200201518686612154565b90940193600101611ef5565b5060005b856020015151811015611f7f57611f5c600280878761213e565b85019450611f7386602001518281518110611f2157fe5b90940193600101611f42565b5060005b856040015151811015611fc157611f9e60036002878761213e565b85019450611fb586604001518281518110611f2157fe5b90940193600101611f83565b509092039392505050565b60008080611fdb84515161212b565b60010182019150611ff084602001515161212b565b919091016001019392505050565b6000828161201060016002848761213e565b9094019361202086518686612154565b85019450612031600280878761213e565b85019450612044866020015186866121a3565b90940103949350505050565b600080805b83515181101561207c5761206f84518281518110611e6a57fe5b6001920182019101612055565b5060005b836020015151811015611ee9576120a084602001518281518110611e6a57fe5b6001920182019101612080565b600082815b8551518110156120ea576120ca60016002878761213e565b909401936120de86518281518110611f2157fe5b909401936001016120b2565b5060005b856020015151811015611fc157612108600280878761213e565b8501945061211f86602001518281518110611f2157fe5b909401936001016120ee565b6000612136826121b0565b909101919050565b60006008850260078516176103718185856121ca565b600080600080865192506121698387876121ca565b9150600090508186018501602088015b84831461219757805160001a82536001928301929182019101612179565b50500195945050505050565b60006108d3848484612154565b600060015b8060070260020a8310610330576001016121b5565b60008082840181805b607f8460070260020a8904169150607f6001850160070260020a890416905060008114612211578160801783536001830192506001840193506121d3565b607f8460070260020a8904169150818353505050600101949350505050565b60206040519081016040526000815290565b606060405190810160405280612256612230565b8152602001612263612230565b8152602001612270612230565b905290565b6040805190810160405280612263612230565b8280548282559060005260206000209081019282156122d4579160200282015b828111156122d4578251829080516122c49291602001906122e0565b50916020019190600101906122a8565b506117b092915061235a565b828054600181600116156101000203166002900490600052602060002090601f016020900481019282601f1061232157805160ff191683800117855561234e565b8280016001018555821561234e579182015b8281111561234e578251825591602001919060010190612333565b506117b0929150612380565b61237d91905b808211156117b0576000612374828261239a565b50600101612360565b90565b61237d91905b808211156117b05760008155600101612386565b50805460018160011615610100020316600290046000825580601f106123c057506123de565b601f0160209004906000526020600020908101906123de9190612380565b50565b6000601f82018390126123f357600080fd5b8135612406612401826126f5565b6126ca565b9150808252602083016020830185838301111561242257600080fd5b6107dc838284612732565b60006020828403121561243f57600080fd5b813567ffffffffffffffff81111561245657600080fd5b6108d3848285016123e1565b6000806040838503121561247557600080fd5b823567ffffffffffffffff81111561248c57600080fd5b612498858286016123e1565b925050602083013567ffffffffffffffff8111156124b557600080fd5b6124c1858286016123e1565b9150509250929050565b6000806000606084860312156124e057600080fd5b833567ffffffffffffffff8111156124f757600080fd5b612503868287016123e1565b935050602084013567ffffffffffffffff81111561252057600080fd5b61252c868287016123e1565b925050604084013567ffffffffffffffff81111561254957600080fd5b612555868287016123e1565b9150509250925092565b600061256a82612723565b808452602084019350836020820285016125838561271d565b60005b848110156125ba57838303885261259e8383516125de565b92506125a98261271d565b602098909801979150600101612586565b50909695505050505050565b6125cf8161272d565b82525050565b6125cf8161237d565b60006125e982612723565b8084526125fd81602086016020860161273e565b6126068161276e565b9093016020019392505050565b60408082528101612624818561255f565b905081810360208301526108d3818461255f565b60608082528101612649818661255f565b9050818103602083015261265d818561255f565b9050818103604083015261039b818461255f565b6020810161033082846125c6565b6020810161033082846125d5565b6020808252810161269e81846125de565b9392505050565b604080825281016126b681856125de565b905081810360208301526108d381846125de565b6000604051905081810181811067ffffffffffffffff821117156126ed57600080fd5b604052919050565b600067ffffffffffffffff82111561270c57600080fd5b506020601f91909101601f19160190565b60200190565b6000815192915050565b151590565b82818337506000910152565b60005b83811015612759578082015183820152602001612741565b83811115612768576000848401525b50505050565b601f01601f1916905600ffffffffff000000000000000000000000000000000000000000000000000000a265627a7a723058209479f2f81d05a2c56a99e7270352884f9b21e7f4e5f2cf696a43434566342d1b6c6578706572696d656e74616cf50037",
  "source": "pragma solidity ^0.4.21;\npragma experimental ABIEncoderV2;\n\nimport \"./cid.sol\";\nimport \"./pb_mod.sol\";\nimport './IPropositionStorage.sol';\n\n/// @notice The OntologyStorage keeps track of all the ontological entities required to construct propositions, and the propositions themselves.\n// The structure for each of the entities is very similar:\n//\n// store<Entity> function: Stores the entity, in the process checking its wellformedness. Returns the CID, under which it can later be retrieved and referenced.\n// retrieve<Entity> function: Retrieve entity by its CID.\n// isStored<Entity> function: Checks if an entity is stored by its CID.\n// calculateCid<Entity> function: Calculate the CID of an entity.\n// cidPrefix<Entity> function: Returns the CID prefix for an entity, which can be used to find out the type of entity.\n// hashCid<Entity> function: Hash the entity, producing the latter part of the CID.\n// checkDependenciesAreStored<Entity> function: Check if all the CIDs that are referenced in the entity are already stored in the contract.\n// <Entity>Stored event: Is emitted when `store<Entity>` is called successfully.\ncontract OntologyStorage is IPropositionStorage {\n  mapping (bytes32 => AnnotationCodec.Annotation) private annotations;\n  mapping (bytes32 => ClassCodec.Class) private classes;\n  mapping (bytes32 => IndividualCodec.Individual) private individuals;\n\n  event AnnotationStored(bytes _cid);\n  event ClassStored(bytes _cid);\n  event IndividualStored(bytes _cid);\n\n  //\n  // Annotation\n  //\n\n  function storeAnnotation(bytes property, string value) public returns (bytes) {\n    var ann = AnnotationCodec.Annotation(property, value);\n    var hash = hashAnnotation(ann);\n    annotations[hash] = ann;\n\n    var annCid = cid.wrapInCid(cidPrefixAnnotation(), hash);\n    emit AnnotationStored(annCid);\n    return annCid;\n  }\n\n  function retrieveAnnotation(bytes annCid) public view returns (bytes, string) {\n    bytes32 hash = cid.unwrapCid(annCid);\n    var ann = annotations[hash];\n\n    return (ann.property, ann.value);\n  }\n\n  function isStoredAnnotation(bytes annCid) public view returns (bool exists) {\n    bytes32 hash = cid.unwrapCid(annCid);\n    AnnotationCodec.Annotation memory ann = annotations[hash];\n\n    bytes32 propertyHash = cid.unwrapCid(ann.property);\n    bytes32 defaultBytes;\n    return propertyHash != defaultBytes;\n  }\n\n  function calculateHashAnnotation(bytes property, string value) public view returns (bytes32) {\n    var ann = AnnotationCodec.Annotation(property, value);\n    return hashAnnotation(ann);\n  }\n\n  function calculateCidAnnotation(bytes property, string value) public view returns (bytes) {\n    var ann = AnnotationCodec.Annotation(property, value);\n    var hash = hashAnnotation(ann);\n    return cid.wrapInCid(cidPrefixAnnotation(), hash);\n  }\n\n  function cidPrefixAnnotation() private pure returns (bytes5) {\n    bytes5 annCidPrefix = 0x01f0011b20;\n    return annCidPrefix;\n  }\n\n  function hashAnnotation(AnnotationCodec.Annotation ann) private view returns (bytes32) {\n    var enc = AnnotationCodec.encode(ann);\n    var hash = keccak256(enc);\n\n    return hash;\n  }\n\n  //\n  // Class\n  //\n\n  // HACK: It appears that there are some bugs when it comes to passing in bytes[],\n  // so for now we are restricted to a single annotation and sub_class_of_class.\n  function buildSimpleClass(bytes _annotations, bytes sub_class_of_class) internal view returns (ClassCodec.Class) {\n\n    bytes[] memory __annotations = new bytes[](0);\n    if (cid.getPrefix(_annotations) == cidPrefixAnnotation()) {\n      __annotations = new bytes[](1);\n      __annotations[0] = _annotations;\n    }\n\n    bytes[] memory __sub_class_of_class = new bytes[](0);\n    if (cid.getPrefix(sub_class_of_class) == cidPrefixClass()) {\n      __sub_class_of_class = new bytes[](1);\n      __sub_class_of_class[0] = sub_class_of_class;\n    }\n\n    var klass = ClassCodec.Class(__annotations, __sub_class_of_class);\n    return klass;\n  }\n\n  function checkDependenciesAreStoredClass(ClassCodec.Class klass) internal view returns (bool) {\n    for (uint i = 0; i < klass.annotations.length; i++) {\n      var annotationCid = klass.annotations[i];\n      if (!isStoredAnnotation(annotationCid)) {\n        return false;\n      }\n    }\n\n    for (uint j = 0; j < klass.sub_class_of_class.length; j++) {\n      var classCid = klass.sub_class_of_class[j];\n      if (!isStoredClass(classCid)) {\n        return false;\n      }\n    }\n\n    return true;\n  }\n\n  function storeClass(bytes _annotations, bytes sub_class_of_class) public returns (bytes) {\n    var klass = buildSimpleClass(_annotations, sub_class_of_class);\n    require(checkDependenciesAreStoredClass(klass));\n    var hash = hashClass(klass);\n\n    classes[hash] = klass;\n\n    var classCid = cid.wrapInCid(cidPrefixClass(), hash);\n    emit ClassStored(classCid);\n    return classCid;\n  }\n\n  function retrieveClass(bytes classCid) public view returns (bytes[], bytes[]) {\n    bytes32 hash = cid.unwrapCid(classCid);\n    var klass = classes[hash];\n\n    return (klass.annotations, klass.sub_class_of_class);\n  }\n\n  function isStoredClass(bytes classCid) public view returns (bool exists) {\n    bytes32 hash = cid.unwrapCid(classCid);\n    ClassCodec.Class memory klass = classes[hash];\n\n    if (klass.annotations.length == 0 && klass.sub_class_of_class.length == 0) {\n      return false;\n    }\n    return true;\n  }\n\n  function calculateHashClass(bytes _annotations, bytes sub_class_of_class) public view returns (bytes32) {\n    var klass = buildSimpleClass(_annotations, sub_class_of_class);\n    return hashClass(klass);\n  }\n\n  function calculateCidClass(bytes _annotations, bytes sub_class_of_class) public returns (bytes) {\n    var klass = buildSimpleClass(_annotations, sub_class_of_class);\n    var hash = hashClass(klass);\n    return cid.wrapInCid(cidPrefixClass(), hash);\n  }\n\n  function cidPrefixClass() private pure returns (bytes5) {\n    bytes5 classCidPrefix = 0x01f1011b20;\n    return classCidPrefix;\n  }\n\n  function hashClass(ClassCodec.Class klass) private view returns (bytes32) {\n    var enc = ClassCodec.encode(klass);\n    var hash = keccak256(enc);\n\n    return hash;\n  }\n\n  //\n  // Individual\n  //\n\n  // HACK: It appears that there are some bugs when it comes to passing in bytes[],\n  // so for now we are restricted to a single annotation and class_assertions.\n  function buildSimpleIndividual(bytes _annotations, bytes _class_assertions, bytes _negative_class_assertions) internal view returns (IndividualCodec.Individual) {\n\n    bytes[] memory __annotations = new bytes[](0);\n    if (cid.getPrefix(_annotations) == cidPrefixAnnotation()) {\n      __annotations = new bytes[](1);\n      __annotations[0] = _annotations;\n    }\n\n    bytes[] memory __class_assertions = new bytes[](0);\n    if (cid.getPrefix(_class_assertions) == cidPrefixClass()) {\n      __class_assertions = new bytes[](1);\n      __class_assertions[0] = _class_assertions;\n    }\n\n    bytes[] memory __negative_class_assertions = new bytes[](0);\n    if (cid.getPrefix(_negative_class_assertions) == cidPrefixClass()) {\n      __negative_class_assertions = new bytes[](1);\n      __negative_class_assertions[0] = _negative_class_assertions;\n    }\n\n    var ind = IndividualCodec.Individual(__annotations, __class_assertions, __negative_class_assertions);\n    return ind;\n  }\n\n  function checkDependenciesAreStoredIndividual(IndividualCodec.Individual ind) internal view returns (bool) {\n    for (uint i = 0; i < ind.annotations.length; i++) {\n      var annotationCid = ind.annotations[i];\n      if (!isStoredAnnotation(annotationCid)) {\n        return false;\n      }\n    }\n\n    for (uint j = 0; j < ind.class_assertions.length; j++) {\n      var classCid = ind.class_assertions[j];\n      if (!isStoredClass(classCid)) {\n        return false;\n      }\n    }\n\n    for (uint k = 0; k < ind.negative_class_assertions.length; k++) {\n      var classCid2 = ind.negative_class_assertions[k];\n      if (!isStoredClass(classCid2)) {\n        return false;\n      }\n    }\n\n    return true;\n  }\n\n  function storeIndividual(bytes _annotations, bytes _class_assertions, bytes _negative_class_assertions) public returns (bytes) {\n    var ind = buildSimpleIndividual(_annotations, _class_assertions, _negative_class_assertions);\n    require(checkDependenciesAreStoredIndividual(ind));\n    var hash = hashIndividual(ind);\n    individuals[hash] = ind;\n\n    var indCid = cid.wrapInCid(cidPrefixIndividual(), hash);\n    emit IndividualStored(indCid);\n    return indCid;\n  }\n\n  function retrieveIndividual(bytes indCid) public view returns (bytes[], bytes[], bytes[]) {\n    bytes32 hash = cid.unwrapCid(indCid);\n    var ind = individuals[hash];\n\n    return (ind.annotations, ind.class_assertions, ind.negative_class_assertions);\n  }\n\n  function isStoredIndividual(bytes indCid) public view returns (bool exists) {\n    bytes32 hash = cid.unwrapCid(indCid);\n    IndividualCodec.Individual memory ind = individuals[hash];\n\n    if (ind.annotations.length == 0 && ind.class_assertions.length == 0) {\n      return false;\n    }\n    return true;\n  }\n\n  function calculateHashIndividual(bytes _annotations, bytes _class_assertions, bytes _negative_class_assertions) public view returns (bytes32) {\n    var ind = buildSimpleIndividual(_annotations, _class_assertions, _negative_class_assertions);\n    return hashIndividual(ind);\n  }\n\n  function calculateCidIndividual(bytes _annotations, bytes _class_assertions, bytes _negative_class_assertions) public view returns (bytes) {\n    var ind = buildSimpleIndividual(_annotations, _class_assertions, _negative_class_assertions);\n    var hash = hashIndividual(ind);\n    return cid.wrapInCid(cidPrefixIndividual(), hash);\n  }\n\n  function cidPrefixIndividual() private pure returns (bytes5) {\n    bytes5 cidPrefix = 0x01f2011b20;\n    return cidPrefix;\n  }\n\n  function hashIndividual(IndividualCodec.Individual ind) private view returns (bytes32) {\n    var enc = IndividualCodec.encode(ind);\n    var hash = keccak256(enc);\n\n    return hash;\n  }\n\n  //\n  // Interface: IPropositionStorage\n  //\n\n  function isPropositionStored(bytes proposition) public view returns (bool stored) {\n    return isStoredIndividual(proposition);\n  }\n}\n",
  "sourcePath": "/home/hobofan/spread/spread-protocol/contracts/OntologyStorage.sol",
  "compiler": {
    "name": "solc",
    "version": "0.4.21+commit.dfe3193c.Emscripten.clang"
  },
  "schemaVersion": "2.0.0",
  "updatedAt": "2018-04-15T18:36:30.686Z"
}