{
  "contractName": "OntologyStorage",
  "abi": [
    {
      "anonymous": false,
      "inputs": [
        {
          "indexed": false,
          "name": "_cid",
          "type": "bytes"
        }
      ],
      "name": "AnnotationStored",
      "type": "event"
    },
    {
      "anonymous": false,
      "inputs": [
        {
          "indexed": false,
          "name": "_cid",
          "type": "bytes"
        }
      ],
      "name": "ClassStored",
      "type": "event"
    },
    {
      "anonymous": false,
      "inputs": [
        {
          "indexed": false,
          "name": "_cid",
          "type": "bytes"
        }
      ],
      "name": "IndividualStored",
      "type": "event"
    },
    {
      "constant": false,
      "inputs": [
        {
          "name": "property",
          "type": "bytes"
        },
        {
          "name": "value",
          "type": "string"
        }
      ],
      "name": "storeAnnotation",
      "outputs": [
        {
          "name": "",
          "type": "bytes"
        }
      ],
      "payable": false,
      "stateMutability": "nonpayable",
      "type": "function"
    },
    {
      "constant": true,
      "inputs": [
        {
          "name": "annCid",
          "type": "bytes"
        }
      ],
      "name": "retrieveAnnotation",
      "outputs": [
        {
          "name": "",
          "type": "bytes"
        },
        {
          "name": "",
          "type": "string"
        }
      ],
      "payable": false,
      "stateMutability": "view",
      "type": "function"
    },
    {
      "constant": true,
      "inputs": [
        {
          "name": "annCid",
          "type": "bytes"
        }
      ],
      "name": "isStoredAnnotation",
      "outputs": [
        {
          "name": "exists",
          "type": "bool"
        }
      ],
      "payable": false,
      "stateMutability": "view",
      "type": "function"
    },
    {
      "constant": true,
      "inputs": [
        {
          "name": "property",
          "type": "bytes"
        },
        {
          "name": "value",
          "type": "string"
        }
      ],
      "name": "calculateHashAnnotation",
      "outputs": [
        {
          "name": "",
          "type": "bytes32"
        }
      ],
      "payable": false,
      "stateMutability": "view",
      "type": "function"
    },
    {
      "constant": true,
      "inputs": [
        {
          "name": "property",
          "type": "bytes"
        },
        {
          "name": "value",
          "type": "string"
        }
      ],
      "name": "calculateCidAnnotation",
      "outputs": [
        {
          "name": "",
          "type": "bytes"
        }
      ],
      "payable": false,
      "stateMutability": "view",
      "type": "function"
    },
    {
      "constant": false,
      "inputs": [
        {
          "name": "_annotations",
          "type": "bytes[]"
        },
        {
          "name": "sub_class_of_class",
          "type": "bytes[]"
        }
      ],
      "name": "storeClass",
      "outputs": [
        {
          "name": "",
          "type": "bytes"
        }
      ],
      "payable": false,
      "stateMutability": "nonpayable",
      "type": "function"
    },
    {
      "constant": true,
      "inputs": [
        {
          "name": "classCid",
          "type": "bytes"
        }
      ],
      "name": "retrieveClass",
      "outputs": [
        {
          "name": "",
          "type": "bytes[]"
        },
        {
          "name": "",
          "type": "bytes[]"
        }
      ],
      "payable": false,
      "stateMutability": "view",
      "type": "function"
    },
    {
      "constant": true,
      "inputs": [
        {
          "name": "classCid",
          "type": "bytes"
        }
      ],
      "name": "isStoredClass",
      "outputs": [
        {
          "name": "exists",
          "type": "bool"
        }
      ],
      "payable": false,
      "stateMutability": "view",
      "type": "function"
    },
    {
      "constant": true,
      "inputs": [
        {
          "name": "_annotations",
          "type": "bytes[]"
        },
        {
          "name": "sub_class_of_class",
          "type": "bytes[]"
        }
      ],
      "name": "calculateHashClass",
      "outputs": [
        {
          "name": "",
          "type": "bytes32"
        }
      ],
      "payable": false,
      "stateMutability": "view",
      "type": "function"
    },
    {
      "constant": true,
      "inputs": [
        {
          "name": "_annotations",
          "type": "bytes[]"
        },
        {
          "name": "sub_class_of_class",
          "type": "bytes[]"
        }
      ],
      "name": "calculateCidClass",
      "outputs": [
        {
          "name": "_cid",
          "type": "bytes"
        }
      ],
      "payable": false,
      "stateMutability": "view",
      "type": "function"
    },
    {
      "constant": false,
      "inputs": [
        {
          "name": "_annotations",
          "type": "bytes[]"
        },
        {
          "name": "_class_assertions",
          "type": "bytes[]"
        },
        {
          "name": "_negative_class_assertions",
          "type": "bytes[]"
        }
      ],
      "name": "storeIndividual",
      "outputs": [
        {
          "name": "",
          "type": "bytes"
        }
      ],
      "payable": false,
      "stateMutability": "nonpayable",
      "type": "function"
    },
    {
      "constant": true,
      "inputs": [
        {
          "name": "indCid",
          "type": "bytes"
        }
      ],
      "name": "retrieveIndividual",
      "outputs": [
        {
          "name": "",
          "type": "bytes[]"
        },
        {
          "name": "",
          "type": "bytes[]"
        },
        {
          "name": "",
          "type": "bytes[]"
        }
      ],
      "payable": false,
      "stateMutability": "view",
      "type": "function"
    },
    {
      "constant": true,
      "inputs": [
        {
          "name": "indCid",
          "type": "bytes"
        }
      ],
      "name": "isStoredIndividual",
      "outputs": [
        {
          "name": "exists",
          "type": "bool"
        }
      ],
      "payable": false,
      "stateMutability": "view",
      "type": "function"
    },
    {
      "constant": true,
      "inputs": [
        {
          "name": "_annotations",
          "type": "bytes[]"
        },
        {
          "name": "_class_assertions",
          "type": "bytes[]"
        },
        {
          "name": "_negative_class_assertions",
          "type": "bytes[]"
        }
      ],
      "name": "calculateHashIndividual",
      "outputs": [
        {
          "name": "",
          "type": "bytes32"
        }
      ],
      "payable": false,
      "stateMutability": "view",
      "type": "function"
    },
    {
      "constant": true,
      "inputs": [
        {
          "name": "_annotations",
          "type": "bytes[]"
        },
        {
          "name": "_class_assertions",
          "type": "bytes[]"
        },
        {
          "name": "_negative_class_assertions",
          "type": "bytes[]"
        }
      ],
      "name": "calculateCidIndividual",
      "outputs": [
        {
          "name": "",
          "type": "bytes"
        }
      ],
      "payable": false,
      "stateMutability": "view",
      "type": "function"
    },
    {
      "constant": true,
      "inputs": [
        {
          "name": "proposition",
          "type": "bytes"
        }
      ],
      "name": "isPropositionStored",
      "outputs": [
        {
          "name": "stored",
          "type": "bool"
        }
      ],
      "payable": false,
      "stateMutability": "view",
      "type": "function"
    }
  ],
  "bytecode": "0x6060604052341561000f57600080fd5b6123f28061001e6000396000f3006060604052600436106100e55763ffffffff7c010000000000000000000000000000000000000000000000000000000060003504166303a87acd81146100ea5780630584eb071461011e5780631d033e5b146101495780632b867f15146101675780635130bb491461019257806361474f4c146101b05780636836e409146101ce5780637a056817146101fa5780639bda72b414610218578063a1fac61b14610236578063b1998b3614610254578063cc460d9d14610272578063dd281b871461029f578063df2072e1146102bd578063e1027563146102e9578063e769f52614610307575b600080fd5b34156100f557600080fd5b6101086101033660046120ea565b610325565b6040516101159190612290565b60405180910390f35b341561012957600080fd5b61013c610137366004612056565b610336565b60405161011591906122ac565b341561015457600080fd5b61013c610162366004611fed565b610440565b341561017257600080fd5b610185610180366004611fed565b610524565b604051610115919061229e565b341561019d57600080fd5b6101856101ab366004612056565b610555565b34156101bb57600080fd5b61013c6101c936600461211f565b61058f565b34156101d957600080fd5b6101ec6101e73660046120ea565b6105d3565b604051610115929190612232565b341561020557600080fd5b61013c610213366004611fed565b6107d9565b341561022357600080fd5b61013c61023136600461211f565b610817565b341561024157600080fd5b61018561024f36600461211f565b6108d2565b341561025f57600080fd5b61010861026d3660046120ea565b6108fb565b341561027d57600080fd5b61029061028b3660046120ea565b610a93565b60405161011593929190612257565b34156102aa57600080fd5b6101086102b83660046120ea565b610d8b565b34156102c857600080fd5b6102db6102d63660046120ea565b610fbb565b6040516101159291906122c4565b34156102f457600080fd5b6101086103023660046120ea565b611140565b341561031257600080fd5b61013c610320366004612056565b611422565b600061033082611140565b92915050565b61033e611d88565b610346611d9a565b6000610350611d88565b60606040519081016040528088815260200187815260200186815250925061037783611472565b151561038257600080fd5b61038b8361158e565b600081815260026020526040902090925083908151819080516103b2929160200190611dcd565b506020820151816001019080516103cd929160200190611dcd565b506040820151816002019080516103e8929160200190611dcd565b509050506103fd6103f761160a565b83611631565b90507ff25d86aad79bced60861989cf8f5a10d2b7a7617c8cc447dce06f272ba4e2f918160405161042e91906122ac565b60405180910390a19695505050505050565b610448611d88565b610450611e25565b600061045a611d88565b604080519081016040528681526020810186905292506104798361177b565b151561048457600080fd5b61048d83611838565b600081815260016020526040902090925083908151819080516104b4929160200190611dcd565b506020820151816001019080516104cf929160200190611dcd565b509050506104de6103f761184d565b90507fe21aebbe4e67c03e11dbbba2f290635a5803078ad4136617705d485ee37cdbba8160405161050f91906122ac565b60405180910390a18093505b50505092915050565b600061052e611e25565b6040805190810160405284815260208101849052905061054d81611838565b949350505050565b600061055f611d9a565b6060604051908101604052808681526020018581526020018481525090506105868161158e565b95945050505050565b610597611d88565b61059f611e25565b6000604080519081016040528581526020810185905291506105c082611871565b90506105866105cd611886565b82611631565b6105db611d88565b6105e3611d88565b6000806105ef856118aa565b6000818152600160208181526040928390208054949650945084939184019284929182810201905190810160405281815291906000602084015b828210156106e657838290600052602060002090018054600181600116156101000203166002900480601f0160208091040260200160405190810160405280929190818152602001828054600181600116156101000203166002900480156106d25780601f106106a7576101008083540402835291602001916106d2565b820191906000526020600020905b8154815290600101906020018083116106b557829003601f168201915b505050505081526020019060010190610629565b5050505091508080548060200260200160405190810160405281815291906000602084015b828210156107c857838290600052602060002090018054600181600116156101000203166002900480601f0160208091040260200160405190810160405280929190818152602001828054600181600116156101000203166002900480156107b45780601f10610789576101008083540402835291602001916107b4565b820191906000526020600020905b81548152906001019060200180831161079757829003601f168201915b50505050508152602001906001019061070b565b505050509050935093505050915091565b6107e1611d88565b6107e9611e25565b60006040805190810160405285815260208101859052915061080a82611838565b90506105866105cd61184d565b61081f611d88565b610827611e25565b6000610831611d88565b6040805190810160405286815260208101869052925061085083611871565b60008181526020819052604090209092508390815181908051610877929160200190611e38565b50602082015181600101908051610892929160200190611e38565b509050506108a16103f7611886565b90507f44a8949760b97b5e094c74680b19803ad5edb630e69da8994980e83df02fb8668160405161050f91906122ac565b60006108dc611e25565b6040805190810160405284815260208101849052905061054d81611871565b600080610906611e25565b600080610912866118aa565b6000818152602081905260409081902091955080519081016040529081600082018054600181600116156101000203166002900480601f0160208091040260200160405190810160405280929190818152602001828054600181600116156101000203166002900480156109c75780601f1061099c576101008083540402835291602001916109c7565b820191906000526020600020905b8154815290600101906020018083116109aa57829003601f168201915b50505050508152602001600182018054600181600116156101000203166002900480601f016020809104026020016040519081016040528092919081815260200182805460018160011615610100020316600290048015610a695780601f10610a3e57610100808354040283529160200191610a69565b820191906000526020600020905b815481529060010190602001808311610a4c57829003601f168201915b5050505050815250509250610a8183600001516118aa565b81811415955091505b50505050919050565b610a9b611d88565b610aa3611d88565b610aab611d88565b600080610ab7866118aa565b600081815260026020818152604092839020805494965094508493600185019392850192859282810201905190810160405281815291906000602084015b82821015610bb257838290600052602060002090018054600181600116156101000203166002900480601f016020809104026020016040519081016040528092919081815260200182805460018160011615610100020316600290048015610b9e5780601f10610b7357610100808354040283529160200191610b9e565b820191906000526020600020905b815481529060010190602001808311610b8157829003601f168201915b505050505081526020019060010190610af5565b5050505092508180548060200260200160405190810160405281815291906000602084015b82821015610c9457838290600052602060002090018054600181600116156101000203166002900480601f016020809104026020016040519081016040528092919081815260200182805460018160011615610100020316600290048015610c805780601f10610c5557610100808354040283529160200191610c80565b820191906000526020600020905b815481529060010190602001808311610c6357829003601f168201915b505050505081526020019060010190610bd7565b5050505091508080548060200260200160405190810160405281815291906000602084015b82821015610d7657838290600052602060002090018054600181600116156101000203166002900480601f016020809104026020016040519081016040528092919081815260200182805460018160011615610100020316600290048015610d625780601f10610d3757610100808354040283529160200191610d62565b820191906000526020600020905b815481529060010190602001808311610d4557829003601f168201915b505050505081526020019060010190610cb9565b50505050905094509450945050509193909250565b600080610d96611e25565b610d9f846118aa565b60008181526001602052604090819020919350805190810160405290816000820180548060200260200160405190810160405281815291906000602084015b82821015610e9b57838290600052602060002090018054600181600116156101000203166002900480601f016020809104026020016040519081016040528092919081815260200182805460018160011615610100020316600290048015610e875780601f10610e5c57610100808354040283529160200191610e87565b820191906000526020600020905b815481529060010190602001808311610e6a57829003601f168201915b505050505081526020019060010190610dde565b5050505081526020016001820180548060200260200160405190810160405281815291906000602084015b82821015610f8357838290600052602060002090018054600181600116156101000203166002900480601f016020809104026020016040519081016040528092919081815260200182805460018160011615610100020316600290048015610f6f5780601f10610f4457610100808354040283529160200191610f6f565b820191906000526020600020905b815481529060010190602001808311610f5257829003601f168201915b505050505081526020019060010190610ec6565b5050509152509091508190505151158015610fa15750806020015151155b15610faf5760009250610fb4565b600192505b5050919050565b610fc3611d88565b610fcb611d88565b600080610fd7856118aa565b9150600080836000191660001916815260200190815260200160002090508060000181600101818054600181600116156101000203166002900480601f0160208091040260200160405190810160405280929190818152602001828054600181600116156101000203166002900480156110925780601f1061106757610100808354040283529160200191611092565b820191906000526020600020905b81548152906001019060200180831161107557829003601f168201915b50505050509150808054600181600116156101000203166002900480601f01602080910402602001604051908101604052809291908181526020018280546001816001161561010002031660029004801561112e5780601f106111035761010080835404028352916020019161112e565b820191906000526020600020905b81548152906001019060200180831161111157829003601f168201915b50505050509050935093505050915091565b60008061114b611d9a565b611154846118aa565b600081815260026020526040908190209193506060905190810160405290816000820180548060200260200160405190810160405281815291906000602084015b8282101561125257838290600052602060002090018054600181600116156101000203166002900480601f01602080910402602001604051908101604052809291908181526020018280546001816001161561010002031660029004801561123e5780601f106112135761010080835404028352916020019161123e565b820191906000526020600020905b81548152906001019060200180831161122157829003601f168201915b505050505081526020019060010190611195565b5050505081526020016001820180548060200260200160405190810160405281815291906000602084015b8282101561133a57838290600052602060002090018054600181600116156101000203166002900480601f0160208091040260200160405190810160405280929190818152602001828054600181600116156101000203166002900480156113265780601f106112fb57610100808354040283529160200191611326565b820191906000526020600020905b81548152906001019060200180831161130957829003601f168201915b50505050508152602001906001019061127d565b5050505081526020016002820180548060200260200160405190810160405281815291906000602084015b82821015610f8357838290600052602060002090018054600181600116156101000203166002900480601f01602080910402602001604051908101604052809291908181526020018280546001816001161561010002031660029004801561140e5780601f106113e35761010080835404028352916020019161140e565b820191906000526020600020905b8154815290600101906020018083116113f157829003601f168201915b505050505081526020019060010190611365565b61142a611d88565b611432611d9a565b600060606040519081016040528087815260200186815260200185815250915061145b8261158e565b90506114686105cd61160a565b9695505050505050565b60008061147d611d88565b6000611487611d88565b6000611491611d88565b600095505b8751518610156114dc57875186815181106114ad57fe5b9060200190602002015194506114c2856108fb565b15156114d15760009650611583565b600190950194611496565b600093505b87602001515184101561152d57876020015184815181106114fe57fe5b90602001906020020151925061151383610d8b565b15156115225760009650611583565b6001909301926114e1565b600091505b87604001515182101561157e578760400151828151811061154f57fe5b90602001906020020151905061156481610d8b565b15156115735760009650611583565b600190910190611532565b600196505b505050505050919050565b6000611598611d88565b60006115a3846118b9565b9150816040518082805190602001908083835b602083106115d55780518252601f1990920191602091820191016115b6565b6001836020036101000a0380198251168184511617909252505050919091019250604091505051908190039020949350505050565b7f01f2011b20000000000000000000000000000000000000000000000000000000805b5090565b611639611d88565b611641611d88565b60008060256040518059106116535750595b818152601f19601f830116810160200160405290509250600091505b60058210156116ee5785826005811061168457fe5b1a7f0100000000000000000000000000000000000000000000000000000000000000028383815181106116b357fe5b9060200101907effffffffffffffffffffffffffffffffffffffffffffffffffffffffffffff1916908160001a90535060019091019061166f565b5060005b60208110156117715784816020811061170757fe5b1a7f01000000000000000000000000000000000000000000000000000000000000000283826005018151811061173957fe5b9060200101907effffffffffffffffffffffffffffffffffffffffffffffffffffffffffffff1916908160001a9053506001016116f2565b5090949350505050565b600080611786611d88565b6000611790611d88565b600093505b8551518410156117db57855184815181106117ac57fe5b9060200190602002015192506117c1836108fb565b15156117d05760009450610a8a565b600190930192611795565b600091505b85602001515182101561182c57856020015182815181106117fd57fe5b90602001906020020151905061181281610d8b565b15156118215760009450610a8a565b6001909101906117e0565b50600195945050505050565b6000611842611d88565b60006115a38461190d565b7f01f1011b2000000000000000000000000000000000000000000000000000000090565b600061187b611d88565b60006115a384611958565b7f01f0011b2000000000000000000000000000000000000000000000000000000090565b60008060258301519392505050565b6118c1611d88565b6118c9611d88565b60006118d4846119a3565b6040518059106118e15750595b818152601f19601f83011681016020016040529050915061190484602084611a48565b82525092915050565b611915611d88565b61191d611d88565b600061192884611b24565b6040518059106119355750595b818152601f19601f83011681016020016040529050915061190484602084611b81565b611960611d88565b611968611d88565b600061197384611bff565b6040518059106119805750595b818152601f19601f83011681016020016040529050915061190484602084611c31565b600080805b8351518110156119df576119d2845182815181106119c257fe5b9060200190602002015151611c83565b60019201820191016119a8565b5060005b836020015151811015611a1057611a03846020015182815181106119c257fe5b60019201820191016119e3565b5060005b836040015151811015611a4157611a34846040015182815181106119c257fe5b6001920182019101611a14565b5092915050565b600082815b855151811015611a9657611a65600160028787611c96565b90940193611a8a86518281518110611a7957fe5b906020019060200201518686611cac565b90940193600101611a4d565b5060005b856020015151811015611ad757611ab46002808787611c96565b85019450611acb86602001518281518110611a7957fe5b90940193600101611a9a565b5060005b856040015151811015611b1957611af6600360028787611c96565b85019450611b0d86604001518281518110611a7957fe5b90940193600101611adb565b509092039392505050565b600080805b835151811015611b5057611b43845182815181106119c257fe5b6001920182019101611b29565b5060005b836020015151811015611a4157611b74846020015182815181106119c257fe5b6001920182019101611b54565b600082815b855151811015611bbe57611b9e600160028787611c96565b90940193611bb286518281518110611a7957fe5b90940193600101611b86565b5060005b856020015151811015611b1957611bdc6002808787611c96565b85019450611bf386602001518281518110611a7957fe5b90940193600101611bc2565b60008080611c0e845151611c83565b60010182019150611c23846020015151611c83565b919091016001019392505050565b60008281611c43600160028487611c96565b90940193611c5386518686611cac565b85019450611c646002808787611c96565b85019450611c7786602001518686611cfb565b90940103949350505050565b6000611c8e82611d08565b909101919050565b6000600885026007851617611468818585611d22565b60008060008086519250611cc1838787611d22565b9150600090508186018501602088015b848314611cef57805160001a82536001928301929182019101611cd1565b50500195945050505050565b600061054d848484611cac565b600060015b8060070260020a831061033057600101611d0d565b60008082840181805b607f8460070260020a8904169150607f6001850160070260020a890416905060008114611d6957816080178353600183019250600184019350611d2b565b607f8460070260020a8904169150818353505050600101949350505050565b60206040519081016040526000815290565b606060405190810160405280611dae611d88565b8152602001611dbb611d88565b8152602001611dc8611d88565b905290565b828054828255906000526020600020908101928215611e19579160200282015b82811115611e1957825182908051611e09929160200190611e38565b5091602001919060010190611ded565b5061162d929150611eb2565b6040805190810160405280611dbb611d88565b828054600181600116156101000203166002900490600052602060002090601f016020900481019282601f10611e7957805160ff1916838001178555611ea6565b82800160010185558215611ea6579182015b82811115611ea6578251825591602001919060010190611e8b565b5061162d929150611ed8565b611ed591905b8082111561162d576000611ecc8282611ef2565b50600101611eb8565b90565b611ed591905b8082111561162d5760008155600101611ede565b50805460018160011615610100020316600290046000825580601f10611f185750611f36565b601f016020900490600052602060002090810190611f369190611ed8565b50565b6000601f8201839012611f4b57600080fd5b8135611f5e611f5982612314565b6122e9565b81815260209384019390925082018360005b83811015611f9c5781358601611f868882611fa6565b8452506020928301929190910190600101611f70565b5050505092915050565b6000601f8201839012611fb857600080fd5b8135611fc6611f5982612335565b91508082526020830160208301858383011115611fe257600080fd5b61051b838284612372565b6000806040838503121561200057600080fd5b823567ffffffffffffffff81111561201757600080fd5b61202385828601611f39565b925050602083013567ffffffffffffffff81111561204057600080fd5b61204c85828601611f39565b9150509250929050565b60008060006060848603121561206b57600080fd5b833567ffffffffffffffff81111561208257600080fd5b61208e86828701611f39565b935050602084013567ffffffffffffffff8111156120ab57600080fd5b6120b786828701611f39565b925050604084013567ffffffffffffffff8111156120d457600080fd5b6120e086828701611f39565b9150509250925092565b6000602082840312156120fc57600080fd5b813567ffffffffffffffff81111561211357600080fd5b61054d84828501611fa6565b6000806040838503121561213257600080fd5b823567ffffffffffffffff81111561214957600080fd5b61215585828601611fa6565b925050602083013567ffffffffffffffff81111561217257600080fd5b61204c85828601611fa6565b600061218982612363565b808452602084019350836020820285016121a28561235d565b60005b848110156121d95783830388526121bd8383516121fd565b92506121c88261235d565b6020989098019791506001016121a5565b50909695505050505050565b6121ee8161236d565b82525050565b6121ee81611ed5565b600061220882612363565b80845261221c81602086016020860161237e565b612225816123ae565b9093016020019392505050565b60408082528101612243818561217e565b9050818103602083015261054d818461217e565b60608082528101612268818661217e565b9050818103602083015261227c818561217e565b90508181036040830152610586818461217e565b6020810161033082846121e5565b6020810161033082846121f4565b602080825281016122bd81846121fd565b9392505050565b604080825281016122d581856121fd565b9050818103602083015261054d81846121fd565b6000604051905081810181811067ffffffffffffffff8211171561230c57600080fd5b604052919050565b600067ffffffffffffffff82111561232b57600080fd5b5060209081020190565b600067ffffffffffffffff82111561234c57600080fd5b506020601f91909101601f19160190565b60200190565b6000815192915050565b151590565b82818337506000910152565b60005b83811015612399578082015183820152602001612381565b838111156123a8576000848401525b50505050565b601f01601f1916905600a265627a7a72305820b408be9c834126990ab7f9dce8b3f9e53fe505425e691cd58c60df60985a68ac6c6578706572696d656e74616cf50037",
  "source": "pragma solidity ^0.4.21;\npragma experimental ABIEncoderV2;\n\nimport \"./cid.sol\";\nimport \"./pb_mod.sol\";\nimport './IPropositionStorage.sol';\n\n/// @notice The OntologyStorage keeps track of all the ontological entities required to construct propositions, and the propositions themselves.\n// The structure for each of the entities is very similar:\n//\n// store<Entity> function: Stores the entity, in the process checking its wellformedness. Returns the CID, under which it can later be retrieved and referenced.\n// retrieve<Entity> function: Retrieve entity by its CID.\n// isStored<Entity> function: Checks if an entity is stored by its CID.\n// calculateCid<Entity> function: Calculate the CID of an entity.\n// cidPrefix<Entity> function: Returns the CID prefix for an entity, which can be used to find out the type of entity.\n// hashCid<Entity> function: Hash the entity, producing the latter part of the CID.\n// checkDependenciesAreStored<Entity> function: Check if all the CIDs that are referenced in the entity are already stored in the contract.\n// <Entity>Stored event: Is emitted when `store<Entity>` is called successfully.\ncontract OntologyStorage is IPropositionStorage {\n  mapping (bytes32 => AnnotationCodec.Annotation) private annotations;\n  mapping (bytes32 => ClassCodec.Class) private classes;\n  mapping (bytes32 => IndividualCodec.Individual) private individuals;\n\n  event AnnotationStored(bytes _cid);\n  event ClassStored(bytes _cid);\n  event IndividualStored(bytes _cid);\n\n  //\n  // Annotation\n  //\n\n  function storeAnnotation(bytes property, string value) public returns (bytes) {\n    var ann = AnnotationCodec.Annotation(property, value);\n    var hash = hashAnnotation(ann);\n    annotations[hash] = ann;\n\n    var annCid = cid.wrapInCid(cidPrefixAnnotation(), hash);\n    emit AnnotationStored(annCid);\n    return annCid;\n  }\n\n  function retrieveAnnotation(bytes annCid) public view returns (bytes, string) {\n    bytes32 hash = cid.unwrapCid(annCid);\n    var ann = annotations[hash];\n\n    return (ann.property, ann.value);\n  }\n\n  function isStoredAnnotation(bytes annCid) public view returns (bool exists) {\n    bytes32 hash = cid.unwrapCid(annCid);\n    AnnotationCodec.Annotation memory ann = annotations[hash];\n\n    bytes32 propertyHash = cid.unwrapCid(ann.property);\n    bytes32 defaultBytes;\n    return propertyHash != defaultBytes;\n  }\n\n  function calculateHashAnnotation(bytes property, string value) public view returns (bytes32) {\n    var ann = AnnotationCodec.Annotation(property, value);\n    return hashAnnotation(ann);\n  }\n\n  function calculateCidAnnotation(bytes property, string value) public view returns (bytes) {\n    var ann = AnnotationCodec.Annotation(property, value);\n    var hash = hashAnnotation(ann);\n    return cid.wrapInCid(cidPrefixAnnotation(), hash);\n  }\n\n  function cidPrefixAnnotation() private pure returns (bytes5) {\n    bytes5 annCidPrefix = 0x01f0011b20;\n    return annCidPrefix;\n  }\n\n  function hashAnnotation(AnnotationCodec.Annotation ann) private view returns (bytes32) {\n    var enc = AnnotationCodec.encode(ann);\n    var hash = keccak256(enc);\n\n    return hash;\n  }\n\n  //\n  // Class\n  //\n\n  function checkDependenciesAreStoredClass(ClassCodec.Class klass) internal view returns (bool) {\n    for (uint i = 0; i < klass.annotations.length; i++) {\n      var annotationCid = klass.annotations[i];\n      if (!isStoredAnnotation(annotationCid)) {\n        return false;\n      }\n    }\n\n    for (uint j = 0; j < klass.sub_class_of_class.length; j++) {\n      var classCid = klass.sub_class_of_class[j];\n      if (!isStoredClass(classCid)) {\n        return false;\n      }\n    }\n\n    return true;\n  }\n\n  function storeClass(bytes[] _annotations, bytes[] sub_class_of_class) public returns (bytes) {\n    var klass = ClassCodec.Class(_annotations, sub_class_of_class);\n    require(checkDependenciesAreStoredClass(klass));\n    var hash = hashClass(klass);\n\n    classes[hash] = klass;\n\n    var classCid = cid.wrapInCid(cidPrefixClass(), hash);\n    emit ClassStored(classCid);\n    return classCid;\n  }\n\n  function retrieveClass(bytes classCid) public view returns (bytes[], bytes[]) {\n    bytes32 hash = cid.unwrapCid(classCid);\n    var klass = classes[hash];\n\n    return (klass.annotations, klass.sub_class_of_class);\n  }\n\n  function isStoredClass(bytes classCid) public view returns (bool exists) {\n    bytes32 hash = cid.unwrapCid(classCid);\n    ClassCodec.Class memory klass = classes[hash];\n\n    if (klass.annotations.length == 0 && klass.sub_class_of_class.length == 0) {\n      return false;\n    }\n    return true;\n  }\n\n  function calculateHashClass(bytes[] _annotations, bytes[] sub_class_of_class) public view returns (bytes32) {\n    var klass = ClassCodec.Class(_annotations, sub_class_of_class);\n    return hashClass(klass);\n  }\n\n  function calculateCidClass(bytes[] _annotations, bytes[] sub_class_of_class) public view returns (bytes _cid) {\n    var klass = ClassCodec.Class(_annotations, sub_class_of_class);\n    var hash = hashClass(klass);\n    return cid.wrapInCid(cidPrefixClass(), hash);\n  }\n\n  function cidPrefixClass() private pure returns (bytes5) {\n    bytes5 classCidPrefix = 0x01f1011b20;\n    return classCidPrefix;\n  }\n\n  function hashClass(ClassCodec.Class klass) private view returns (bytes32) {\n    var enc = ClassCodec.encode(klass);\n    var hash = keccak256(enc);\n\n    return hash;\n  }\n\n  //\n  // Individual\n  //\n  function checkDependenciesAreStoredIndividual(IndividualCodec.Individual ind) internal view returns (bool) {\n    for (uint i = 0; i < ind.annotations.length; i++) {\n      var annotationCid = ind.annotations[i];\n      if (!isStoredAnnotation(annotationCid)) {\n        return false;\n      }\n    }\n\n    for (uint j = 0; j < ind.class_assertions.length; j++) {\n      var classCid = ind.class_assertions[j];\n      if (!isStoredClass(classCid)) {\n        return false;\n      }\n    }\n\n    for (uint k = 0; k < ind.negative_class_assertions.length; k++) {\n      var classCid2 = ind.negative_class_assertions[k];\n      if (!isStoredClass(classCid2)) {\n        return false;\n      }\n    }\n\n    return true;\n  }\n\n  function storeIndividual(bytes[] _annotations, bytes[] _class_assertions, bytes[] _negative_class_assertions) public returns (bytes) {\n    var ind = IndividualCodec.Individual(_annotations, _class_assertions, _negative_class_assertions);\n    require(checkDependenciesAreStoredIndividual(ind));\n    var hash = hashIndividual(ind);\n    individuals[hash] = ind;\n\n    var indCid = cid.wrapInCid(cidPrefixIndividual(), hash);\n    emit IndividualStored(indCid);\n    return indCid;\n  }\n\n  function retrieveIndividual(bytes indCid) public view returns (bytes[], bytes[], bytes[]) {\n    bytes32 hash = cid.unwrapCid(indCid);\n    var ind = individuals[hash];\n\n    return (ind.annotations, ind.class_assertions, ind.negative_class_assertions);\n  }\n\n  function isStoredIndividual(bytes indCid) public view returns (bool exists) {\n    bytes32 hash = cid.unwrapCid(indCid);\n    IndividualCodec.Individual memory ind = individuals[hash];\n\n    if (ind.annotations.length == 0 && ind.class_assertions.length == 0) {\n      return false;\n    }\n    return true;\n  }\n\n  function calculateHashIndividual(bytes[] _annotations, bytes[] _class_assertions, bytes[] _negative_class_assertions) public view returns (bytes32) {\n    var ind = IndividualCodec.Individual(_annotations, _class_assertions, _negative_class_assertions);\n    return hashIndividual(ind);\n  }\n\n  function calculateCidIndividual(bytes[] _annotations, bytes[] _class_assertions, bytes[] _negative_class_assertions) public view returns (bytes) {\n    var ind = IndividualCodec.Individual(_annotations, _class_assertions, _negative_class_assertions);\n    var hash = hashIndividual(ind);\n    return cid.wrapInCid(cidPrefixIndividual(), hash);\n  }\n\n  function cidPrefixIndividual() private pure returns (bytes5) {\n    bytes5 cidPrefix = 0x01f2011b20;\n    return cidPrefix;\n  }\n\n  function hashIndividual(IndividualCodec.Individual ind) private view returns (bytes32) {\n    var enc = IndividualCodec.encode(ind);\n    var hash = keccak256(enc);\n\n    return hash;\n  }\n\n  //\n  // Interface: IPropositionStorage\n  //\n\n  function isPropositionStored(bytes proposition) public view returns (bool stored) {\n    return isStoredIndividual(proposition);\n  }\n}\n",
  "sourcePath": "/home/hobofan/spread/spread-protocol/contracts/OntologyStorage.sol",
  "compiler": {
    "name": "solc",
    "version": "0.4.21+commit.dfe3193c.Emscripten.clang"
  },
  "schemaVersion": "2.0.0",
  "updatedAt": "2018-04-20T13:02:59.239Z"
}