{
  "contractName": "OntologyStorage",
  "abi": [
    {
      "anonymous": false,
      "inputs": [
        {
          "indexed": false,
          "name": "_cid",
          "type": "bytes"
        }
      ],
      "name": "AnnotationStored",
      "type": "event"
    },
    {
      "anonymous": false,
      "inputs": [
        {
          "indexed": false,
          "name": "_cid",
          "type": "bytes"
        }
      ],
      "name": "ClassStored",
      "type": "event"
    },
    {
      "anonymous": false,
      "inputs": [
        {
          "indexed": false,
          "name": "_cid",
          "type": "bytes"
        }
      ],
      "name": "IndividualStored",
      "type": "event"
    },
    {
      "constant": false,
      "inputs": [
        {
          "name": "property",
          "type": "bytes"
        },
        {
          "name": "value",
          "type": "string"
        }
      ],
      "name": "storeAnnotation",
      "outputs": [
        {
          "name": "",
          "type": "bytes"
        }
      ],
      "payable": false,
      "stateMutability": "nonpayable",
      "type": "function"
    },
    {
      "constant": true,
      "inputs": [
        {
          "name": "annCid",
          "type": "bytes"
        }
      ],
      "name": "retrieveAnnotation",
      "outputs": [
        {
          "name": "",
          "type": "bytes"
        },
        {
          "name": "",
          "type": "string"
        }
      ],
      "payable": false,
      "stateMutability": "view",
      "type": "function"
    },
    {
      "constant": true,
      "inputs": [
        {
          "name": "annCid",
          "type": "bytes"
        }
      ],
      "name": "isStoredAnnotation",
      "outputs": [
        {
          "name": "exists",
          "type": "bool"
        }
      ],
      "payable": false,
      "stateMutability": "view",
      "type": "function"
    },
    {
      "constant": true,
      "inputs": [
        {
          "name": "property",
          "type": "bytes"
        },
        {
          "name": "value",
          "type": "string"
        }
      ],
      "name": "calculateHashAnnotation",
      "outputs": [
        {
          "name": "",
          "type": "bytes32"
        }
      ],
      "payable": false,
      "stateMutability": "view",
      "type": "function"
    },
    {
      "constant": true,
      "inputs": [
        {
          "name": "property",
          "type": "bytes"
        },
        {
          "name": "value",
          "type": "string"
        }
      ],
      "name": "calculateCidAnnotation",
      "outputs": [
        {
          "name": "",
          "type": "bytes"
        }
      ],
      "payable": false,
      "stateMutability": "view",
      "type": "function"
    },
    {
      "constant": false,
      "inputs": [
        {
          "name": "_annotations",
          "type": "bytes"
        },
        {
          "name": "sub_class_of_class",
          "type": "bytes"
        }
      ],
      "name": "storeClass",
      "outputs": [
        {
          "name": "",
          "type": "bytes"
        }
      ],
      "payable": false,
      "stateMutability": "nonpayable",
      "type": "function"
    },
    {
      "constant": true,
      "inputs": [
        {
          "name": "classCid",
          "type": "bytes"
        }
      ],
      "name": "retrieveClass",
      "outputs": [
        {
          "name": "",
          "type": "bytes[]"
        },
        {
          "name": "",
          "type": "bytes[]"
        }
      ],
      "payable": false,
      "stateMutability": "view",
      "type": "function"
    },
    {
      "constant": true,
      "inputs": [
        {
          "name": "classCid",
          "type": "bytes"
        }
      ],
      "name": "isStoredClass",
      "outputs": [
        {
          "name": "exists",
          "type": "bool"
        }
      ],
      "payable": false,
      "stateMutability": "view",
      "type": "function"
    },
    {
      "constant": true,
      "inputs": [
        {
          "name": "_annotations",
          "type": "bytes"
        },
        {
          "name": "sub_class_of_class",
          "type": "bytes"
        }
      ],
      "name": "calculateHashClass",
      "outputs": [
        {
          "name": "",
          "type": "bytes32"
        }
      ],
      "payable": false,
      "stateMutability": "view",
      "type": "function"
    },
    {
      "constant": false,
      "inputs": [
        {
          "name": "_annotations",
          "type": "bytes"
        },
        {
          "name": "sub_class_of_class",
          "type": "bytes"
        }
      ],
      "name": "calculateCidClass",
      "outputs": [
        {
          "name": "",
          "type": "bytes"
        }
      ],
      "payable": false,
      "stateMutability": "nonpayable",
      "type": "function"
    },
    {
      "constant": false,
      "inputs": [
        {
          "name": "_annotations",
          "type": "bytes"
        },
        {
          "name": "_class_assertions",
          "type": "bytes"
        }
      ],
      "name": "storeIndividual",
      "outputs": [
        {
          "name": "",
          "type": "bytes"
        }
      ],
      "payable": false,
      "stateMutability": "nonpayable",
      "type": "function"
    },
    {
      "constant": true,
      "inputs": [
        {
          "name": "indCid",
          "type": "bytes"
        }
      ],
      "name": "retrieveIndividual",
      "outputs": [
        {
          "name": "",
          "type": "bytes[]"
        },
        {
          "name": "",
          "type": "bytes[]"
        }
      ],
      "payable": false,
      "stateMutability": "view",
      "type": "function"
    },
    {
      "constant": true,
      "inputs": [
        {
          "name": "indCid",
          "type": "bytes"
        }
      ],
      "name": "isStoredIndividual",
      "outputs": [
        {
          "name": "exists",
          "type": "bool"
        }
      ],
      "payable": false,
      "stateMutability": "view",
      "type": "function"
    },
    {
      "constant": true,
      "inputs": [
        {
          "name": "_annotations",
          "type": "bytes"
        },
        {
          "name": "_class_assertions",
          "type": "bytes"
        }
      ],
      "name": "calculateHashIndividual",
      "outputs": [
        {
          "name": "",
          "type": "bytes32"
        }
      ],
      "payable": false,
      "stateMutability": "view",
      "type": "function"
    },
    {
      "constant": true,
      "inputs": [
        {
          "name": "_annotations",
          "type": "bytes"
        },
        {
          "name": "_class_assertions",
          "type": "bytes"
        }
      ],
      "name": "calculateCidIndividual",
      "outputs": [
        {
          "name": "",
          "type": "bytes"
        }
      ],
      "payable": false,
      "stateMutability": "view",
      "type": "function"
    },
    {
      "constant": true,
      "inputs": [
        {
          "name": "proposition",
          "type": "bytes"
        }
      ],
      "name": "isPropositionStored",
      "outputs": [
        {
          "name": "stored",
          "type": "bool"
        }
      ],
      "payable": false,
      "stateMutability": "view",
      "type": "function"
    }
  ],
  "bytecode": "0x6060604052341561000f57600080fd5b6122be8061001e6000396000f3006060604052600436106100e55763ffffffff7c010000000000000000000000000000000000000000000000000000000060003504166303a87acd81146100ea57806361474f4c1461011e5780636836e4091461014957806396a6340f146101755780639a25c2bd146101935780639bda72b4146101b1578063a149aab7146101cf578063a1fac61b146101ed578063b1998b3614610218578063c596ea4314610236578063cc460d9d14610254578063d102e32b14610272578063dd281b8714610290578063df2072e1146102ae578063e1027563146102da578063e33ed0ce146102f8575b600080fd5b34156100f557600080fd5b610108610103366004611fe6565b610316565b604051610115919061215d565b60405180910390f35b341561012957600080fd5b61013c61013736600461201b565b610327565b6040516101159190612179565b341561015457600080fd5b610167610162366004611fe6565b610374565b604051610115929190612138565b341561018057600080fd5b61013c61018e36600461201b565b61057a565b341561019e57600080fd5b61013c6101ac36600461201b565b61065a565b34156101bc57600080fd5b61013c6101ca36600461201b565b61068e565b34156101da57600080fd5b61013c6101e836600461201b565b610749565b34156101f857600080fd5b61020b61020636600461201b565b61080e565b604051610115919061216b565b341561022357600080fd5b610108610231366004611fe6565b61083f565b341561024157600080fd5b61020b61024f36600461201b565b6109d7565b341561025f57600080fd5b61016761026d366004611fe6565b6109f6565b341561027d57600080fd5b61013c61028b36600461201b565b610beb565b341561029b57600080fd5b6101086102a9366004611fe6565b610c1f565b34156102b957600080fd5b6102cc6102c7366004611fe6565b610e4f565b604051610115929190612191565b34156102e557600080fd5b6101086102f3366004611fe6565b610fd4565b341561030357600080fd5b61020b61031136600461201b565b6111cc565b600061032182610fd4565b92915050565b61032f611e0a565b610337611e1c565b600060408051908101604052858152602081018590529150610358826111eb565b905061036b610365611267565b8261128e565b95945050505050565b61037c611e0a565b610384611e0a565b600080610390856113d8565b6000818152600160208181526040928390208054949650945084939184019284929182810201905190810160405281815291906000602084015b8282101561048757838290600052602060002090018054600181600116156101000203166002900480601f0160208091040260200160405190810160405280929190818152602001828054600181600116156101000203166002900480156104735780601f1061044857610100808354040283529160200191610473565b820191906000526020600020905b81548152906001019060200180831161045657829003601f168201915b5050505050815260200190600101906103ca565b5050505091508080548060200260200160405190810160405281815291906000602084015b8282101561056957838290600052602060002090018054600181600116156101000203166002900480601f0160208091040260200160405190810160405280929190818152602001828054600181600116156101000203166002900480156105555780601f1061052a57610100808354040283529160200191610555565b820191906000526020600020905b81548152906001019060200180831161053857829003601f168201915b5050505050815260200190600101906104ac565b505050509050935093505050915091565b610582611e0a565b61058a611e1c565b6000610594611e0a565b61059e86866113e7565b92506105a9836115e1565b15156105b457600080fd5b6105bd8361169e565b600081815260026020526040902090925083908151819080516105e4929160200190611e41565b506020820151816001019080516105ff929160200190611e41565b5090505061061461060e6116b3565b8361128e565b90507ff25d86aad79bced60861989cf8f5a10d2b7a7617c8cc447dce06f272ba4e2f91816040516106459190612179565b60405180910390a18093505b50505092915050565b610662611e0a565b61066a611e1c565b600061067685856116d7565b9150610681826118ab565b905061036b6103656118c0565b610696611e0a565b61069e611e1c565b60006106a8611e0a565b604080519081016040528681526020810186905292506106c7836111eb565b600081815260208190526040902090925083908151819080516106ee929160200190611e99565b50602082015181600101908051610709929160200190611e99565b5090505061071861060e611267565b90507f44a8949760b97b5e094c74680b19803ad5edb630e69da8994980e83df02fb866816040516106459190612179565b610751611e0a565b610759611e1c565b6000610763611e0a565b61076d86866116d7565b9250610778836118e4565b151561078357600080fd5b61078c836118ab565b600081815260016020526040902090925083908151819080516107b3929160200190611e41565b506020820151816001019080516107ce929160200190611e41565b509050506107dd61060e6118c0565b90507fe21aebbe4e67c03e11dbbba2f290635a5803078ad4136617705d485ee37cdbba816040516106459190612179565b6000610818611e1c565b60408051908101604052848152602081018490529050610837816111eb565b949350505050565b60008061084a611e1c565b600080610856866113d8565b6000818152602081905260409081902091955080519081016040529081600082018054600181600116156101000203166002900480601f01602080910402602001604051908101604052809291908181526020018280546001816001161561010002031660029004801561090b5780601f106108e05761010080835404028352916020019161090b565b820191906000526020600020905b8154815290600101906020018083116108ee57829003601f168201915b50505050508152602001600182018054600181600116156101000203166002900480601f0160208091040260200160405190810160405280929190818152602001828054600181600116156101000203166002900480156109ad5780601f10610982576101008083540402835291602001916109ad565b820191906000526020600020905b81548152906001019060200180831161099057829003601f168201915b50505050508152505092506109c583600001516113d8565b81811415955091505b50505050919050565b60006109e1611e1c565b6109eb84846116d7565b9050610837816118ab565b6109fe611e0a565b610a06611e0a565b600080610a12856113d8565b6000818152600260209081526040918290208054939550935083926001840192849282810201905190810160405281815291906000602084015b82821015610b0957838290600052602060002090018054600181600116156101000203166002900480601f016020809104026020016040519081016040528092919081815260200182805460018160011615610100020316600290048015610af55780601f10610aca57610100808354040283529160200191610af5565b820191906000526020600020905b815481529060010190602001808311610ad857829003601f168201915b505050505081526020019060010190610a4c565b5050505091508080548060200260200160405190810160405281815291906000602084015b8282101561056957838290600052602060002090018054600181600116156101000203166002900480601f016020809104026020016040519081016040528092919081815260200182805460018160011615610100020316600290048015610bd75780601f10610bac57610100808354040283529160200191610bd7565b820191906000526020600020905b815481529060010190602001808311610bba57829003601f168201915b505050505081526020019060010190610b2e565b610bf3611e0a565b610bfb611e1c565b6000610c0785856113e7565b9150610c128261169e565b905061036b6103656116b3565b600080610c2a611e1c565b610c33846113d8565b60008181526001602052604090819020919350805190810160405290816000820180548060200260200160405190810160405281815291906000602084015b82821015610d2f57838290600052602060002090018054600181600116156101000203166002900480601f016020809104026020016040519081016040528092919081815260200182805460018160011615610100020316600290048015610d1b5780601f10610cf057610100808354040283529160200191610d1b565b820191906000526020600020905b815481529060010190602001808311610cfe57829003601f168201915b505050505081526020019060010190610c72565b5050505081526020016001820180548060200260200160405190810160405281815291906000602084015b82821015610e1757838290600052602060002090018054600181600116156101000203166002900480601f016020809104026020016040519081016040528092919081815260200182805460018160011615610100020316600290048015610e035780601f10610dd857610100808354040283529160200191610e03565b820191906000526020600020905b815481529060010190602001808311610de657829003601f168201915b505050505081526020019060010190610d5a565b5050509152509091508190505151158015610e355750806020015151155b15610e435760009250610e48565b600192505b5050919050565b610e57611e0a565b610e5f611e0a565b600080610e6b856113d8565b9150600080836000191660001916815260200190815260200160002090508060000181600101818054600181600116156101000203166002900480601f016020809104026020016040519081016040528092919081815260200182805460018160011615610100020316600290048015610f265780601f10610efb57610100808354040283529160200191610f26565b820191906000526020600020905b815481529060010190602001808311610f0957829003601f168201915b50505050509150808054600181600116156101000203166002900480601f016020809104026020016040519081016040528092919081815260200182805460018160011615610100020316600290048015610fc25780601f10610f9757610100808354040283529160200191610fc2565b820191906000526020600020905b815481529060010190602001808311610fa557829003601f168201915b50505050509050935093505050915091565b600080610fdf611e1c565b610fe8846113d8565b60008181526002602052604090819020919350805190810160405290816000820180548060200260200160405190810160405281815291906000602084015b828210156110e457838290600052602060002090018054600181600116156101000203166002900480601f0160208091040260200160405190810160405280929190818152602001828054600181600116156101000203166002900480156110d05780601f106110a5576101008083540402835291602001916110d0565b820191906000526020600020905b8154815290600101906020018083116110b357829003601f168201915b505050505081526020019060010190611027565b5050505081526020016001820180548060200260200160405190810160405281815291906000602084015b82821015610e1757838290600052602060002090018054600181600116156101000203166002900480601f0160208091040260200160405190810160405280929190818152602001828054600181600116156101000203166002900480156111b85780601f1061118d576101008083540402835291602001916111b8565b820191906000526020600020905b81548152906001019060200180831161119b57829003601f168201915b50505050508152602001906001019061110f565b60006111d6611e1c565b6111e084846113e7565b90506108378161169e565b60006111f5611e0a565b600061120084611995565b9150816040518082805190602001908083835b602083106112325780518252601f199092019160209182019101611213565b6001836020036101000a0380198251168184511617909252505050919091019250604091505051908190039020949350505050565b7f01f0011b20000000000000000000000000000000000000000000000000000000805b5090565b611296611e0a565b61129e611e0a565b60008060256040518059106112b05750595b818152601f19601f830116810160200160405290509250600091505b600582101561134b578582600581106112e157fe5b1a7f01000000000000000000000000000000000000000000000000000000000000000283838151811061131057fe5b9060200101907effffffffffffffffffffffffffffffffffffffffffffffffffffffffffffff1916908160001a9053506001909101906112cc565b5060005b60208110156113ce5784816020811061136457fe5b1a7f01000000000000000000000000000000000000000000000000000000000000000283826005018151811061139657fe5b9060200101907effffffffffffffffffffffffffffffffffffffffffffffffffffffffffffff1916908160001a90535060010161134f565b5090949350505050565b60008060258301519392505050565b6113ef611e1c565b6113f7611e0a565b6113ff611e0a565b611407611e1c565b60006040518059106114165750595b90808252806020026020018201604052801561144c57816020015b611439611e0a565b8152602001906001900390816114315790505b509250611457611267565b60008051602061226583398151915216611470876119e9565b6000805160206122658339815191521614156114e75760016040518059106114955750595b9080825280602002602001820160405280156114cb57816020015b6114b8611e0a565b8152602001906001900390816114b05790505b50925085836000815181106114dc57fe5b602090810290910101525b60006040518059106114f65750595b90808252806020026020018201604052801561152c57816020015b611519611e0a565b8152602001906001900390816115115790505b5091506115376118c0565b60008051602061226583398151915216611550866119e9565b6000805160206122658339815191521614156115c75760016040518059106115755750595b9080825280602002602001820160405280156115ab57816020015b611598611e0a565b8152602001906001900390816115905790505b50915084826000815181106115bc57fe5b602090810290910101525b604080519081016040529283525060208201529392505050565b6000806115ec611e0a565b60006115f6611e0a565b600093505b855151841015611641578551848151811061161257fe5b9060200190602002015192506116278361083f565b151561163657600094506109ce565b6001909301926115fb565b600091505b856020015151821015611692578560200151848151811061166357fe5b90602001906020020151905061167881610c1f565b151561168757600094506109ce565b600190910190611646565b50600195945050505050565b60006116a8611e0a565b6000611200846119f8565b7f01f2011b2000000000000000000000000000000000000000000000000000000090565b6116df611e1c565b6116e7611e0a565b6116ef611e0a565b6116f7611e1c565b60006040518059106117065750595b90808252806020026020018201604052801561173c57816020015b611729611e0a565b8152602001906001900390816117215790505b509250611747611267565b60008051602061226583398151915216611760876119e9565b6000805160206122658339815191521614156117d75760016040518059106117855750595b9080825280602002602001820160405280156117bb57816020015b6117a8611e0a565b8152602001906001900390816117a05790505b50925085836000815181106117cc57fe5b602090810290910101525b60006040518059106117e65750595b90808252806020026020018201604052801561181c57816020015b611809611e0a565b8152602001906001900390816118015790505b5091506118276118c0565b60008051602061226583398151915216611840866119e9565b6000805160206122658339815191521614156115c75760016040518059106118655750595b9080825280602002602001820160405280156115ab57816020015b611888611e0a565b81526020019060019003908161188057905050915084826000815181106115bc57fe5b60006118b5611e0a565b600061120084611a43565b7f01f1011b2000000000000000000000000000000000000000000000000000000090565b6000806118ef611e0a565b60006118f9611e0a565b600093505b855151841015611944578551848151811061191557fe5b90602001906020020151925061192a8361083f565b151561193957600094506109ce565b6001909301926118fe565b600091505b856020015151821015611692578560200151848151811061196657fe5b90602001906020020151905061197b81610c1f565b151561198a57600094506109ce565b600190910190611949565b61199d611e0a565b6119a5611e0a565b60006119b084611a8e565b6040518059106119bd5750595b818152601f19601f8301168101602001604052905091506119e084602084611ac0565b82525092915050565b60008060208301519392505050565b611a00611e0a565b611a08611e0a565b6000611a1384611b12565b604051805910611a205750595b818152601f19601f8301168101602001604052905091506119e084602084611b86565b611a4b611e0a565b611a53611e0a565b6000611a5e84611c20565b604051805910611a6b5750595b818152601f19601f8301168101602001604052905091506119e084602084611c7d565b60008080611a9d845151611cfb565b60010182019150611ab2846020015151611cfb565b919091016001019392505050565b60008281611ad2600160028487611d0e565b90940193611ae286518686611d2e565b85019450611af36002808787611d0e565b85019450611b0686602001518686611d7d565b90940103949350505050565b600080805b835151811015611b4e57611b4184518281518110611b3157fe5b9060200190602002015151611cfb565b6001920182019101611b17565b5060005b836020015151811015611b7f57611b7284602001518281518110611b3157fe5b6001920182019101611b52565b5092915050565b600082815b855151811015611bd457611ba3600160028787611d0e565b90940193611bc886518281518110611bb757fe5b906020019060200201518686611d2e565b90940193600101611b8b565b5060005b856020015151811015611c1557611bf26002808787611d0e565b85019450611c0986602001518281518110611bb757fe5b90940193600101611bd8565b509092039392505050565b600080805b835151811015611c4c57611c3f84518281518110611b3157fe5b6001920182019101611c25565b5060005b836020015151811015611b7f57611c7084602001518281518110611b3157fe5b6001920182019101611c50565b600082815b855151811015611cba57611c9a600160028787611d0e565b90940193611cae86518281518110611bb757fe5b90940193600101611c82565b5060005b856020015151811015611c1557611cd86002808787611d0e565b85019450611cef86602001518281518110611bb757fe5b90940193600101611cbe565b6000611d0682611d8a565b909101919050565b6000600885026007851617611d24818585611da4565b9695505050505050565b60008060008086519250611d43838787611da4565b9150600090508186018501602088015b848314611d7157805160001a82536001928301929182019101611d53565b50500195945050505050565b6000610837848484611d2e565b600060015b8060070260020a831061032157600101611d8f565b60008082840181805b607f8460070260020a8904169150607f6001850160070260020a890416905060008114611deb57816080178353600183019250600184019350611dad565b607f8460070260020a8904169150818353505050600101949350505050565b60206040519081016040526000815290565b6040805190810160405280611e2f611e0a565b8152602001611e3c611e0a565b905290565b828054828255906000526020600020908101928215611e8d579160200282015b82811115611e8d57825182908051611e7d929160200190611e99565b5091602001919060010190611e61565b5061128a929150611f13565b828054600181600116156101000203166002900490600052602060002090601f016020900481019282601f10611eda57805160ff1916838001178555611f07565b82800160010185558215611f07579182015b82811115611f07578251825591602001919060010190611eec565b5061128a929150611f39565b611f3691905b8082111561128a576000611f2d8282611f53565b50600101611f19565b90565b611f3691905b8082111561128a5760008155600101611f3f565b50805460018160011615610100020316600290046000825580601f10611f795750611f97565b601f016020900490600052602060002090810190611f979190611f39565b50565b6000601f8201839012611fac57600080fd5b8135611fbf611fba826121e1565b6121b6565b91508082526020830160208301858383011115611fdb57600080fd5b61065183828461221e565b600060208284031215611ff857600080fd5b813567ffffffffffffffff81111561200f57600080fd5b61083784828501611f9a565b6000806040838503121561202e57600080fd5b823567ffffffffffffffff81111561204557600080fd5b61205185828601611f9a565b925050602083013567ffffffffffffffff81111561206e57600080fd5b61207a85828601611f9a565b9150509250929050565b600061208f8261220f565b808452602084019350836020820285016120a885612209565b60005b848110156120df5783830388526120c3838351612103565b92506120ce82612209565b6020989098019791506001016120ab565b50909695505050505050565b6120f481612219565b82525050565b6120f481611f36565b600061210e8261220f565b80845261212281602086016020860161222a565b61212b8161225a565b9093016020019392505050565b604080825281016121498185612084565b905081810360208301526108378184612084565b6020810161032182846120eb565b6020810161032182846120fa565b6020808252810161218a8184612103565b9392505050565b604080825281016121a28185612103565b905081810360208301526108378184612103565b6000604051905081810181811067ffffffffffffffff821117156121d957600080fd5b604052919050565b600067ffffffffffffffff8211156121f857600080fd5b506020601f91909101601f19160190565b60200190565b6000815192915050565b151590565b82818337506000910152565b60005b8381101561224557808201518382015260200161222d565b83811115612254576000848401525b50505050565b601f01601f1916905600ffffffffff000000000000000000000000000000000000000000000000000000a265627a7a723058202e373b361e13e9f0b8d2be4d2513ffbd16d26bfa2dead14f5989465fc38858666c6578706572696d656e74616cf50037",
  "source": "pragma solidity ^0.4.21;\npragma experimental ABIEncoderV2;\n\nimport \"./cid.sol\";\nimport \"./pb_mod.sol\";\nimport './IPropositionStorage.sol';\n\n/// @notice The OntologyStorage keeps track of all the ontological entities required to construct propositions, and the propositions themselves.\n// The structure for each of the entities is very similar:\n//\n// store<Entity> function: Stores the entity, in the process checking its wellformedness. Returns the CID, under which it can later be retrieved and referenced.\n// retrieve<Entity> function: Retrieve entity by its CID.\n// isStored<Entity> function: Checks if an entity is stored by its CID.\n// calculateCid<Entity> function: Calculate the CID of an entity.\n// cidPrefix<Entity> function: Returns the CID prefix for an entity, which can be used to find out the type of entity.\n// hashCid<Entity> function: Hash the entity, producing the latter part of the CID.\n// checkDependenciesAreStored<Entity> function: Check if all the CIDs that are referenced in the entity are already stored in the contract.\n// <Entity>Stored event: Is emitted when `store<Entity>` is called successfully.\ncontract OntologyStorage is IPropositionStorage {\n  mapping (bytes32 => AnnotationCodec.Annotation) private annotations;\n  mapping (bytes32 => ClassCodec.Class) private classes;\n  mapping (bytes32 => IndividualCodec.Individual) private individuals;\n\n  event AnnotationStored(bytes _cid);\n  event ClassStored(bytes _cid);\n  event IndividualStored(bytes _cid);\n\n  //\n  // Annotation\n  //\n\n  function storeAnnotation(bytes property, string value) public returns (bytes) {\n    var ann = AnnotationCodec.Annotation(property, value);\n    var hash = hashAnnotation(ann);\n    annotations[hash] = ann;\n\n    var annCid = cid.wrapInCid(cidPrefixAnnotation(), hash);\n    emit AnnotationStored(annCid);\n    return annCid;\n  }\n\n  function retrieveAnnotation(bytes annCid) public view returns (bytes, string) {\n    bytes32 hash = cid.unwrapCid(annCid);\n    var ann = annotations[hash];\n\n    return (ann.property, ann.value);\n  }\n\n  function isStoredAnnotation(bytes annCid) public view returns (bool exists) {\n    bytes32 hash = cid.unwrapCid(annCid);\n    AnnotationCodec.Annotation memory ann = annotations[hash];\n\n    bytes32 propertyHash = cid.unwrapCid(ann.property);\n    bytes32 defaultBytes;\n    return propertyHash != defaultBytes;\n  }\n\n  function calculateHashAnnotation(bytes property, string value) public view returns (bytes32) {\n    var ann = AnnotationCodec.Annotation(property, value);\n    return hashAnnotation(ann);\n  }\n\n  function calculateCidAnnotation(bytes property, string value) public view returns (bytes) {\n    var ann = AnnotationCodec.Annotation(property, value);\n    var hash = hashAnnotation(ann);\n    return cid.wrapInCid(cidPrefixAnnotation(), hash);\n  }\n\n  function cidPrefixAnnotation() private pure returns (bytes5) {\n    bytes5 annCidPrefix = 0x01f0011b20;\n    return annCidPrefix;\n  }\n\n  function hashAnnotation(AnnotationCodec.Annotation ann) private view returns (bytes32) {\n    var enc = AnnotationCodec.encode(ann);\n    var hash = keccak256(enc);\n\n    return hash;\n  }\n\n  //\n  // Class\n  //\n\n  // HACK: It appears that there are some bugs when it comes to passing in bytes[],\n  // so for now we are restricted to a single annotation and sub_class_of_class.\n  function buildSimpleClass(bytes _annotations, bytes sub_class_of_class) internal view returns (ClassCodec.Class) {\n\n    bytes[] memory __annotations = new bytes[](0);\n    if (cid.getPrefix(_annotations) == cidPrefixAnnotation()) {\n      __annotations = new bytes[](1);\n      __annotations[0] = _annotations;\n    }\n\n    bytes[] memory __sub_class_of_class = new bytes[](0);\n    if (cid.getPrefix(sub_class_of_class) == cidPrefixClass()) {\n      __sub_class_of_class = new bytes[](1);\n      __sub_class_of_class[0] = sub_class_of_class;\n    }\n\n    var klass = ClassCodec.Class(__annotations, __sub_class_of_class);\n    return klass;\n  }\n\n  function checkDependenciesAreStoredClass(ClassCodec.Class klass) internal view returns (bool) {\n    for (uint i = 0; i < klass.annotations.length; i++) {\n      var annotationCid = klass.annotations[i];\n      if (!isStoredAnnotation(annotationCid)) {\n        return false;\n      }\n    }\n\n    for (uint j = 0; j < klass.sub_class_of_class.length; j++) {\n      var classCid = klass.sub_class_of_class[i];\n      if (!isStoredClass(classCid)) {\n        return false;\n      }\n    }\n\n    return true;\n  }\n\n  function storeClass(bytes _annotations, bytes sub_class_of_class) public returns (bytes) {\n    var klass = buildSimpleClass(_annotations, sub_class_of_class);\n    require(checkDependenciesAreStoredClass(klass));\n    var hash = hashClass(klass);\n\n    classes[hash] = klass;\n\n    var classCid = cid.wrapInCid(cidPrefixClass(), hash);\n    emit ClassStored(classCid);\n    return classCid;\n  }\n\n  function retrieveClass(bytes classCid) public view returns (bytes[], bytes[]) {\n    bytes32 hash = cid.unwrapCid(classCid);\n    var klass = classes[hash];\n\n    return (klass.annotations, klass.sub_class_of_class);\n  }\n\n  function isStoredClass(bytes classCid) public view returns (bool exists) {\n    bytes32 hash = cid.unwrapCid(classCid);\n    ClassCodec.Class memory klass = classes[hash];\n\n    if (klass.annotations.length == 0 && klass.sub_class_of_class.length == 0) {\n      return false;\n    }\n    return true;\n  }\n\n  function calculateHashClass(bytes _annotations, bytes sub_class_of_class) public view returns (bytes32) {\n    var klass = buildSimpleClass(_annotations, sub_class_of_class);\n    return hashClass(klass);\n  }\n\n  function calculateCidClass(bytes _annotations, bytes sub_class_of_class) public returns (bytes) {\n    var klass = buildSimpleClass(_annotations, sub_class_of_class);\n    var hash = hashClass(klass);\n    return cid.wrapInCid(cidPrefixClass(), hash);\n  }\n\n  function cidPrefixClass() private pure returns (bytes5) {\n    bytes5 classCidPrefix = 0x01f1011b20;\n    return classCidPrefix;\n  }\n\n  function hashClass(ClassCodec.Class klass) private view returns (bytes32) {\n    var enc = ClassCodec.encode(klass);\n    var hash = keccak256(enc);\n\n    return hash;\n  }\n\n  //\n  // Individual\n  //\n\n  // HACK: It appears that there are some bugs when it comes to passing in bytes[],\n  // so for now we are restricted to a single annotation and class_assertions.\n  function buildSimpleIndividual(bytes _annotations, bytes _class_assertions) internal view returns (IndividualCodec.Individual) {\n\n    bytes[] memory __annotations = new bytes[](0);\n    if (cid.getPrefix(_annotations) == cidPrefixAnnotation()) {\n      __annotations = new bytes[](1);\n      __annotations[0] = _annotations;\n    }\n\n    bytes[] memory __class_assertions = new bytes[](0);\n    if (cid.getPrefix(_class_assertions) == cidPrefixClass()) {\n      __class_assertions = new bytes[](1);\n      __class_assertions[0] = _class_assertions;\n    }\n\n    var ind = IndividualCodec.Individual(__annotations, __class_assertions);\n    return ind;\n  }\n\n  function checkDependenciesAreStoredIndividual(IndividualCodec.Individual ind) internal view returns (bool) {\n    for (uint i = 0; i < ind.annotations.length; i++) {\n      var annotationCid = ind.annotations[i];\n      if (!isStoredAnnotation(annotationCid)) {\n        return false;\n      }\n    }\n\n    for (uint j = 0; j < ind.class_assertions.length; j++) {\n      var classCid = ind.class_assertions[i];\n      if (!isStoredClass(classCid)) {\n        return false;\n      }\n    }\n\n    return true;\n  }\n\n  function storeIndividual(bytes _annotations, bytes _class_assertions) public returns (bytes) {\n    var ind = buildSimpleIndividual(_annotations, _class_assertions);\n    require(checkDependenciesAreStoredIndividual(ind));\n    var hash = hashIndividual(ind);\n    individuals[hash] = ind;\n\n    var indCid = cid.wrapInCid(cidPrefixIndividual(), hash);\n    emit IndividualStored(indCid);\n    return indCid;\n  }\n\n  function retrieveIndividual(bytes indCid) public view returns (bytes[], bytes[]) {\n    bytes32 hash = cid.unwrapCid(indCid);\n    var ind = individuals[hash];\n\n    return (ind.annotations, ind.class_assertions);\n  }\n\n  function isStoredIndividual(bytes indCid) public view returns (bool exists) {\n    bytes32 hash = cid.unwrapCid(indCid);\n    IndividualCodec.Individual memory ind = individuals[hash];\n\n    if (ind.annotations.length == 0 && ind.class_assertions.length == 0) {\n      return false;\n    }\n    return true;\n  }\n\n  function calculateHashIndividual(bytes _annotations, bytes _class_assertions) public view returns (bytes32) {\n    var ind = buildSimpleIndividual(_annotations, _class_assertions);\n    return hashIndividual(ind);\n  }\n\n  function calculateCidIndividual(bytes _annotations, bytes _class_assertions) public view returns (bytes) {\n    var ind = buildSimpleIndividual(_annotations, _class_assertions);\n    var hash = hashIndividual(ind);\n    return cid.wrapInCid(cidPrefixIndividual(), hash);\n  }\n\n  function cidPrefixIndividual() private pure returns (bytes5) {\n    bytes5 cidPrefix = 0x01f2011b20;\n    return cidPrefix;\n  }\n\n  function hashIndividual(IndividualCodec.Individual ind) private view returns (bytes32) {\n    var enc = IndividualCodec.encode(ind);\n    var hash = keccak256(enc);\n\n    return hash;\n  }\n\n  //\n  // Interface: IPropositionStorage\n  //\n\n  function isPropositionStored(bytes proposition) public view returns (bool stored) {\n    return isStoredIndividual(proposition);\n  }\n}\n",
  "sourcePath": "/home/hobofan/spread/spread-protocol/contracts/OntologyStorage.sol",
  "compiler": {
    "name": "solc",
    "version": "0.4.21+commit.dfe3193c.Emscripten.clang"
  },
  "schemaVersion": "2.0.0",
  "updatedAt": "2018-04-12T09:38:20.796Z"
}