{
  "contractName": "PropositionLedger",
  "abi": [
    {
      "constant": true,
      "inputs": [],
      "name": "propositionStorageContractAddr",
      "outputs": [
        {
          "name": "",
          "type": "address"
        }
      ],
      "payable": false,
      "stateMutability": "view",
      "type": "function"
    },
    {
      "constant": true,
      "inputs": [],
      "name": "tokenContractAddr",
      "outputs": [
        {
          "name": "",
          "type": "address"
        }
      ],
      "payable": false,
      "stateMutability": "view",
      "type": "function"
    },
    {
      "constant": true,
      "inputs": [
        {
          "name": "",
          "type": "bytes32"
        }
      ],
      "name": "weights",
      "outputs": [
        {
          "name": "",
          "type": "uint256"
        }
      ],
      "payable": false,
      "stateMutability": "view",
      "type": "function"
    },
    {
      "inputs": [
        {
          "name": "_tokenContractAddr",
          "type": "address"
        },
        {
          "name": "_propositionStorageContractAddr",
          "type": "address"
        }
      ],
      "payable": false,
      "stateMutability": "nonpayable",
      "type": "constructor"
    },
    {
      "anonymous": false,
      "inputs": [
        {
          "indexed": false,
          "name": "_cid",
          "type": "bytes"
        },
        {
          "indexed": false,
          "name": "_amount",
          "type": "uint256"
        },
        {
          "indexed": false,
          "name": "_sender",
          "type": "address"
        }
      ],
      "name": "PropositionWeightIncreased",
      "type": "event"
    },
    {
      "anonymous": false,
      "inputs": [
        {
          "indexed": false,
          "name": "_cid",
          "type": "bytes"
        },
        {
          "indexed": false,
          "name": "_amount",
          "type": "uint256"
        }
      ],
      "name": "PropositionWeightNewTotal",
      "type": "event"
    },
    {
      "constant": false,
      "inputs": [
        {
          "name": "propositionCid",
          "type": "bytes"
        },
        {
          "name": "amount",
          "type": "uint256"
        }
      ],
      "name": "submitProposition",
      "outputs": [],
      "payable": false,
      "stateMutability": "nonpayable",
      "type": "function"
    }
  ],
  "bytecode": "0x608060405234801561001057600080fd5b5060405160408061070783398101604052805160209091015161003b82640100000000610094810204565b151561004657600080fd5b61005881640100000000610094810204565b151561006357600080fd5b60008054600160a060020a03938416600160a060020a0319918216179091556001805492909316911617905561009c565b6000903b1190565b61065c806100ab6000396000f3006080604052600436106100615763ffffffff7c01000000000000000000000000000000000000000000000000000000006000350416630ec7d4fe8114610066578063398a60a4146100a457806356d0f6f7146101015780637addf67514610116575b600080fd5b34801561007257600080fd5b5061007b610140565b6040805173ffffffffffffffffffffffffffffffffffffffff9092168252519081900360200190f35b3480156100b057600080fd5b506040805160206004803580820135601f81018490048402850184019095528484526100ff943694929360249392840191908190840183828082843750949750509335945061015c9350505050565b005b34801561010d57600080fd5b5061007b6105fb565b34801561012257600080fd5b5061012e600435610617565b60408051918252519081900360200190f35b60015473ffffffffffffffffffffffffffffffffffffffff1681565b600080546001546040517f03a87acd00000000000000000000000000000000000000000000000000000000815260206004820181815287516024840152875173ffffffffffffffffffffffffffffffffffffffff95861696949095169485936303a87acd938a93928392604401918501908083838b5b838110156101ea5781810151838201526020016101d2565b50505050905090810190601f1680156102175780820380516001836020036101000a031916815260200191505b5092505050602060405180830381600087803b15801561023657600080fd5b505af115801561024a573d6000803e3d6000fd5b505050506040513d602081101561026057600080fd5b5051151561026d57600080fd5b604080517fdd62ed3e0000000000000000000000000000000000000000000000000000000081523360048201523060248201529051859173ffffffffffffffffffffffffffffffffffffffff86169163dd62ed3e916044808201926020929091908290030181600087803b1580156102e457600080fd5b505af11580156102f8573d6000803e3d6000fd5b505050506040513d602081101561030e57600080fd5b5051101561031b57600080fd5b604080517f70a082310000000000000000000000000000000000000000000000000000000081523360048201529051859173ffffffffffffffffffffffffffffffffffffffff8616916370a08231916024808201926020929091908290030181600087803b15801561038c57600080fd5b505af11580156103a0573d6000803e3d6000fd5b505050506040513d60208110156103b657600080fd5b505110156103c357600080fd5b6103cc85610629565b604080517f23b872dd00000000000000000000000000000000000000000000000000000000815233600482015230602482015260448101879052905191925073ffffffffffffffffffffffffffffffffffffffff8516916323b872dd916064808201926020929091908290030181600087803b15801561044b57600080fd5b505af115801561045f573d6000803e3d6000fd5b505050506040513d602081101561047557600080fd5b50506000818152600260209081526040808320805488019055805180830188905233918101829052606080825289519082015288517f56c39cada96a3e40d2fe3386c0dc47aa8ab845584538a788d8afc045b4ea1671948a948a94939283926080840192880191908190849084905b838110156104fc5781810151838201526020016104e4565b50505050905090810190601f1680156105295780820380516001836020036101000a031916815260200191505b5094505050505060405180910390a17fd3ee6032279c27e06e43aceb4eef3e85e23e3faf4bd4a564314ec713ac0d59b885600260008460001916600019168152602001908152602001600020546040518080602001838152602001828103825284818151815260200191508051906020019080838360005b838110156105b95781810151838201526020016105a1565b50505050905090810190601f1680156105e65780820380516001836020036101000a031916815260200191505b50935050505060405180910390a15050505050565b60005473ffffffffffffffffffffffffffffffffffffffff1681565b60026020526000908152604090205481565b60250151905600a165627a7a72305820d851549b2c6c129a9ef1a401d7ba010da11fc77b8e5cfbce5c78eb5d59bd85280029",
  "source": "pragma solidity ^0.4.21;\n\nimport \"./IPropositionStorage.sol\";\nimport \"./cid.sol\";\nimport \"tokens/eip20/EIP20Interface.sol\";\n\n/// @notice The PropositionLedger tracks how much weight has been put on which propositions.\n/// In the future this should extend to tracking more exactly who has added weight to a proposition,\n/// and at what point in time they did that\ncontract PropositionLedger {\n    event PropositionWeightIncreased(bytes _cid, uint256 _amount, address _sender);\n    event PropositionWeightNewTotal(bytes _cid, uint256 _amount);\n\n    address public tokenContractAddr;\n    address public propositionStorageContractAddr;\n\n    // proposition => total staked amount\n    mapping (bytes32 => uint256) public weights;\n\n    function PropositionLedger(\n        address _tokenContractAddr,\n        address _propositionStorageContractAddr\n    ) public {\n        require(isContract(_tokenContractAddr));\n        require(isContract(_propositionStorageContractAddr));\n\n        tokenContractAddr = _tokenContractAddr;\n        propositionStorageContractAddr = _propositionStorageContractAddr;\n    }\n\n    function isContract(address addr) private view returns (bool) {\n        uint size;\n        assembly { size := extcodesize(addr) }\n        return size > 0;\n    }\n\n    /// @notice The main function used for adding weight to a proposition.\n    /// @dev Emits `PropositionWeightIncreased` and `PropositionWeightNewTotal` when a proposition is successfully added.\n    /// @param propositionCid CID of the proposition that the msg.sender is putting weight on. Needs to be stored in the OntologyStorage as a Individual before calling the function.\n    /// @param amount The amount of the ERC20 Token that is put down as weight for the proposition. A ERC20 allowance in the height of `amount` for this contract has to be granted for this function call to succeed.\n    function submitProposition(\n        bytes propositionCid,\n        uint256 amount\n    ) public {\n        EIP20Interface tokenContract = EIP20Interface(tokenContractAddr);\n        IPropositionStorage propositionStorageContract = IPropositionStorage(propositionStorageContractAddr);\n\n        require(propositionStorageContract.isPropositionStored(propositionCid));\n        require(tokenContract.allowance(msg.sender, this) >= amount);\n        require(tokenContract.balanceOf(msg.sender) >= amount);\n\n        bytes32 propositionHash = cid.unwrapCid(propositionCid);\n        tokenContract.transferFrom(msg.sender, this, amount);\n        weights[propositionHash] += amount;\n        emit PropositionWeightIncreased(propositionCid, amount, msg.sender);\n        emit PropositionWeightNewTotal(propositionCid, weights[propositionHash]);\n    }\n}\n",
  "sourcePath": "/Users/hobofan/rlay/rlay-protocol/contracts/PropositionLedger.sol",
  "compiler": {
    "name": "solc",
    "version": "0.4.24+commit.e67f0147.Emscripten.clang"
  },
  "schemaVersion": "2.0.0",
  "updatedAt": "2018-06-28T09:28:45.853Z"
}