{
  "contractName": "PropositionLedger",
  "abi": [
    {
      "constant": true,
      "inputs": [],
      "name": "propositionStorageContractAddr",
      "outputs": [
        {
          "name": "",
          "type": "address"
        }
      ],
      "payable": false,
      "stateMutability": "view",
      "type": "function"
    },
    {
      "constant": true,
      "inputs": [],
      "name": "tokenContractAddr",
      "outputs": [
        {
          "name": "",
          "type": "address"
        }
      ],
      "payable": false,
      "stateMutability": "view",
      "type": "function"
    },
    {
      "constant": true,
      "inputs": [
        {
          "name": "",
          "type": "bytes32"
        }
      ],
      "name": "weights",
      "outputs": [
        {
          "name": "",
          "type": "uint256"
        }
      ],
      "payable": false,
      "stateMutability": "view",
      "type": "function"
    },
    {
      "inputs": [
        {
          "name": "_tokenContractAddr",
          "type": "address"
        },
        {
          "name": "_propositionStorageContractAddr",
          "type": "address"
        }
      ],
      "payable": false,
      "stateMutability": "nonpayable",
      "type": "constructor"
    },
    {
      "anonymous": false,
      "inputs": [
        {
          "indexed": false,
          "name": "_cid",
          "type": "bytes"
        },
        {
          "indexed": false,
          "name": "_amount",
          "type": "uint256"
        }
      ],
      "name": "PropositionWeightIncreased",
      "type": "event"
    },
    {
      "anonymous": false,
      "inputs": [
        {
          "indexed": false,
          "name": "_cid",
          "type": "bytes"
        },
        {
          "indexed": false,
          "name": "_amount",
          "type": "uint256"
        }
      ],
      "name": "PropositionWeightNewTotal",
      "type": "event"
    },
    {
      "constant": false,
      "inputs": [
        {
          "name": "propositionCid",
          "type": "bytes"
        },
        {
          "name": "amount",
          "type": "uint256"
        }
      ],
      "name": "submitProposition",
      "outputs": [],
      "payable": false,
      "stateMutability": "nonpayable",
      "type": "function"
    }
  ],
  "bytecode": "0x6060604052341561000f57600080fd5b6040516040806106f0833981016040528080519190602001805191506100439050826401000000006106056100a082021704565b151561004e57600080fd5b610064816401000000006106056100a082021704565b151561006f57600080fd5b60008054600160a060020a03938416600160a060020a031991821617909155600180549290931691161790556100a8565b6000903b1190565b610639806100b76000396000f3006060604052600436106100615763ffffffff7c01000000000000000000000000000000000000000000000000000000006000350416630ec7d4fe8114610066578063398a60a4146100a257806356d0f6f7146100f75780637addf6751461010a575b600080fd5b341561007157600080fd5b610079610132565b60405173ffffffffffffffffffffffffffffffffffffffff909116815260200160405180910390f35b34156100ad57600080fd5b6100f560046024813581810190830135806020601f82018190048102016040519081016040528181529291906020840183838082843750949650509335935061014e92505050565b005b341561010257600080fd5b6100796105c8565b341561011557600080fd5b6101206004356105e4565b60405190815260200160405180910390f35b60015473ffffffffffffffffffffffffffffffffffffffff1681565b6000805460015473ffffffffffffffffffffffffffffffffffffffff91821692911690816303a87acd866040518263ffffffff167c01000000000000000000000000000000000000000000000000000000000281526004018080602001828103825283818151815260200191508051906020019080838360005b838110156101e05780820151838201526020016101c8565b50505050905090810190601f16801561020d5780820380516001836020036101000a031916815260200191505b5092505050602060405180830381600087803b151561022b57600080fd5b5af1151561023857600080fd5b50505060405180519050151561024d57600080fd5b838373ffffffffffffffffffffffffffffffffffffffff1663dd62ed3e33306040517c010000000000000000000000000000000000000000000000000000000063ffffffff851602815273ffffffffffffffffffffffffffffffffffffffff928316600482015291166024820152604401602060405180830381600087803b15156102d757600080fd5b5af115156102e457600080fd5b50505060405180519050101515156102fb57600080fd5b838373ffffffffffffffffffffffffffffffffffffffff166370a08231336040517c010000000000000000000000000000000000000000000000000000000063ffffffff841602815273ffffffffffffffffffffffffffffffffffffffff9091166004820152602401602060405180830381600087803b151561037d57600080fd5b5af1151561038a57600080fd5b50505060405180519050101515156103a157600080fd5b6103aa856105f6565b90508273ffffffffffffffffffffffffffffffffffffffff166323b872dd3330876040517c010000000000000000000000000000000000000000000000000000000063ffffffff861602815273ffffffffffffffffffffffffffffffffffffffff93841660048201529190921660248201526044810191909152606401602060405180830381600087803b151561044057600080fd5b5af1151561044d57600080fd5b50505060405180515050600081815260026020526040908190208054860190557fd46c7ff903db9afe68647bf0f54826a05a5ae7100873260cf87c07033a56b8179086908690518080602001838152602001828103825284818151815260200191508051906020019080838360005b838110156104d45780820151838201526020016104bc565b50505050905090810190601f1680156105015780820380516001836020036101000a031916815260200191505b50935050505060405180910390a160008181526002602052604090819020547fd3ee6032279c27e06e43aceb4eef3e85e23e3faf4bd4a564314ec713ac0d59b891879190518080602001838152602001828103825284818151815260200191508051906020019080838360005b8381101561058657808201518382015260200161056e565b50505050905090810190601f1680156105b35780820380516001836020036101000a031916815260200191505b50935050505060405180910390a15050505050565b60005473ffffffffffffffffffffffffffffffffffffffff1681565b60026020526000908152604090205481565b60008060258301519392505050565b6000903b11905600a165627a7a723058208ad8adb87c6b2a977c83416095ff9cfd87a564199d5c44c4f0cf5451078849670029",
  "source": "pragma solidity ^0.4.21;\n\nimport \"./IPropositionStorage.sol\";\nimport \"./cid.sol\";\nimport \"tokens/eip20/EIP20Interface.sol\";\n\n/// @notice The PropositionLedger tracks how much weight has been put on which propositions.\n/// In the future this should extend to tracking more exactly who has added weight to a proposition,\n/// and at what point in time they did that\ncontract PropositionLedger {\n  event PropositionWeightIncreased(bytes _cid, uint256 _amount);\n  event PropositionWeightNewTotal(bytes _cid, uint256 _amount);\n\n  address public tokenContractAddr;\n  address public propositionStorageContractAddr;\n\n  // proposition => total staked amount\n  mapping (bytes32 => uint256) public weights;\n\n  function PropositionLedger(\n    address _tokenContractAddr,\n    address _propositionStorageContractAddr\n  ) public {\n    require(isContract(_tokenContractAddr));\n    require(isContract(_propositionStorageContractAddr));\n\n    tokenContractAddr = _tokenContractAddr;\n    propositionStorageContractAddr = _propositionStorageContractAddr;\n  }\n\n  function isContract(address addr) private view returns (bool) {\n    uint size;\n    assembly { size := extcodesize(addr) }\n    return size > 0;\n  }\n\n  /// @notice The main function used for adding weight to a proposition.\n  /// @dev Emits `PropositionWeightIncreased` and `PropositionWeightNewTotal` when a proposition is successfully added.\n  /// @param propositionCid CID of the proposition that the msg.sender is putting weight on. Needs to be stored in the OntologyStorage as a Individual before calling the function.\n  /// @param amount The amount of the ERC20 Token that is put down as weight for the proposition. A ERC20 allowance in the height of `amount` for this contract has to be granted for this function call to succeed.\n  function submitProposition(\n    bytes propositionCid,\n    uint256 amount\n  ) public {\n    EIP20Interface tokenContract = EIP20Interface(tokenContractAddr);\n    IPropositionStorage propositionStorageContract = IPropositionStorage(propositionStorageContractAddr);\n\n    require(propositionStorageContract.isPropositionStored(propositionCid));\n    require(tokenContract.allowance(msg.sender, this) >= amount);\n    require(tokenContract.balanceOf(msg.sender) >= amount);\n\n    bytes32 propositionHash = cid.unwrapCid(propositionCid);\n    tokenContract.transferFrom(msg.sender, this, amount);\n    weights[propositionHash] += amount;\n    emit PropositionWeightIncreased(propositionCid, amount);\n    emit PropositionWeightNewTotal(propositionCid, weights[propositionHash]);\n  }\n}\n",
  "sourcePath": "/home/hobofan/spread/spread-protocol/contracts/PropositionLedger.sol",
  "compiler": {
    "name": "solc",
    "version": "0.4.21+commit.dfe3193c.Emscripten.clang"
  },
  "schemaVersion": "2.0.0",
  "updatedAt": "2018-04-15T18:36:30.658Z"
}